{
  "contractName": "Admin",
  "abi": [
    {
      "constant": true,
      "inputs": [],
      "name": "owner",
      "outputs": [
        {
          "name": "",
          "type": "address"
        }
      ],
      "payable": false,
      "stateMutability": "view",
      "type": "function"
    },
    {
      "constant": false,
      "inputs": [
        {
          "name": "_newOwner",
          "type": "address"
        }
      ],
      "name": "transferOwnership",
      "outputs": [],
      "payable": false,
      "stateMutability": "nonpayable",
      "type": "function"
    },
    {
      "inputs": [],
      "payable": false,
      "stateMutability": "nonpayable",
      "type": "constructor"
    },
    {
      "anonymous": false,
      "inputs": [
        {
          "indexed": true,
          "name": "user",
          "type": "address"
        }
      ],
      "name": "addAdminEvent",
      "type": "event"
    },
    {
      "anonymous": false,
      "inputs": [
        {
          "indexed": true,
          "name": "user",
          "type": "address"
        }
      ],
      "name": "removeAdminEvent",
      "type": "event"
    },
    {
      "anonymous": false,
      "inputs": [
        {
          "indexed": true,
          "name": "previousOwner",
          "type": "address"
        },
        {
          "indexed": true,
          "name": "newOwner",
          "type": "address"
        }
      ],
      "name": "OwnershipTransferred",
      "type": "event"
    },
    {
      "constant": false,
      "inputs": [
        {
          "name": "_address",
          "type": "address"
        }
      ],
      "name": "addAdmin",
      "outputs": [
        {
          "name": "",
          "type": "bool"
        }
      ],
      "payable": false,
      "stateMutability": "nonpayable",
      "type": "function"
    },
    {
      "constant": false,
      "inputs": [
        {
          "name": "_address",
          "type": "address"
        }
      ],
      "name": "removeAdmin",
      "outputs": [
        {
          "name": "",
          "type": "bool"
        }
      ],
      "payable": false,
      "stateMutability": "nonpayable",
      "type": "function"
    },
    {
      "constant": true,
      "inputs": [
        {
          "name": "_address",
          "type": "address"
        }
      ],
      "name": "isAdmin",
      "outputs": [
        {
          "name": "",
          "type": "bool"
        }
      ],
      "payable": false,
      "stateMutability": "view",
      "type": "function"
    }
  ],
  "bytecode": "0x6080604052336000806101000a81548173ffffffffffffffffffffffffffffffffffffffff021916908373ffffffffffffffffffffffffffffffffffffffff16021790555034801561005057600080fd5b50336000806101000a81548173ffffffffffffffffffffffffffffffffffffffff021916908373ffffffffffffffffffffffffffffffffffffffff1602179055506001600260003373ffffffffffffffffffffffffffffffffffffffff1673ffffffffffffffffffffffffffffffffffffffff16815260200190815260200160002060006101000a81548160ff0219169083151502179055506001808190555061092d806100ff6000396000f30060806040526004361061006d576000357c0100000000000000000000000000000000000000000000000000000000900463ffffffff1680631785f53c1461007257806324d7806c146100cd57806370480275146101285780638da5cb5b14610183578063f2fde38b146101da575b600080fd5b34801561007e57600080fd5b506100b3600480360381019080803573ffffffffffffffffffffffffffffffffffffffff16906020019092919050505061021d565b604051808215151515815260200191505060405180910390f35b3480156100d957600080fd5b5061010e600480360381019080803573ffffffffffffffffffffffffffffffffffffffff1690602001909291905050506104af565b604051808215151515815260200191505060405180910390f35b34801561013457600080fd5b50610169600480360381019080803573ffffffffffffffffffffffffffffffffffffffff169060200190929190505050610516565b604051808215151515815260200191505060405180910390f35b34801561018f57600080fd5b50610198610787565b604051808273ffffffffffffffffffffffffffffffffffffffff1673ffffffffffffffffffffffffffffffffffffffff16815260200191505060405180910390f35b3480156101e657600080fd5b5061021b600480360381019080803573ffffffffffffffffffffffffffffffffffffffff1690602001909291905050506107ac565b005b600060011515600260003373ffffffffffffffffffffffffffffffffffffffff1673ffffffffffffffffffffffffffffffffffffffff16815260200190815260200160002060009054906101000a900460ff16151514151561030d576040517f08c379a00000000000000000000000000000000000000000000000000000000081526004018080602001828103825260358152602001807f4f6e6c792061646d696e73747261746f72732061726520616c6c6f776564207481526020017f6f2063616c6c20746869732066756e6374696f6e2e000000000000000000000081525060400191505060405180910390fd5b6000809054906101000a900473ffffffffffffffffffffffffffffffffffffffff1673ffffffffffffffffffffffffffffffffffffffff168273ffffffffffffffffffffffffffffffffffffffff16141515156103f8576040517f08c379a000000000000000000000000000000000000000000000000000000000815260040180806020018281038252602a8152602001807f436f6e7472616374206f776e65722063616e6e6f742062652072656d6f76656481526020017f2061732061646d696e2e0000000000000000000000000000000000000000000081525060400191505060405180910390fd5b6000600260008473ffffffffffffffffffffffffffffffffffffffff1673ffffffffffffffffffffffffffffffffffffffff16815260200190815260200160002060006101000a81548160ff021916908315150217905550600160008154809291906001900391905055508173ffffffffffffffffffffffffffffffffffffffff167ffd6adb633c1ac063aa19914bb6588330135eff0659b9f22b920a8cdb55b311cf60405160405180910390a260019050919050565b6000600260008373ffffffffffffffffffffffffffffffffffffffff1673ffffffffffffffffffffffffffffffffffffffff16815260200190815260200160002060009054906101000a900460ff161561050c5760019050610511565b600090505b919050565b600060011515600260003373ffffffffffffffffffffffffffffffffffffffff1673ffffffffffffffffffffffffffffffffffffffff16815260200190815260200160002060009054906101000a900460ff161515141515610606576040517f08c379a00000000000000000000000000000000000000000000000000000000081526004018080602001828103825260358152602001807f4f6e6c792061646d696e73747261746f72732061726520616c6c6f776564207481526020017f6f2063616c6c20746869732066756e6374696f6e2e000000000000000000000081525060400191505060405180910390fd5b600073ffffffffffffffffffffffffffffffffffffffff168273ffffffffffffffffffffffffffffffffffffffff16141515156106d1576040517f08c379a00000000000000000000000000000000000000000000000000000000081526004018080602001828103825260268152602001807f412076616c696420757365722061646472657373206d7573742062652070726f81526020017f76696465642e000000000000000000000000000000000000000000000000000081525060400191505060405180910390fd5b6001600260008473ffffffffffffffffffffffffffffffffffffffff1673ffffffffffffffffffffffffffffffffffffffff16815260200190815260200160002060006101000a81548160ff0219169083151502179055506001600081548092919060010191905055508173ffffffffffffffffffffffffffffffffffffffff167f47b0d897028fef1a950c0154d0fd106fcd327d15d095496a249907eacb3a6f9b60405160405180910390a260019050919050565b6000809054906101000a900473ffffffffffffffffffffffffffffffffffffffff1681565b6000809054906101000a900473ffffffffffffffffffffffffffffffffffffffff1673ffffffffffffffffffffffffffffffffffffffff163373ffffffffffffffffffffffffffffffffffffffff1614151561080757600080fd5b600073ffffffffffffffffffffffffffffffffffffffff168173ffffffffffffffffffffffffffffffffffffffff161415151561084357600080fd5b8073ffffffffffffffffffffffffffffffffffffffff166000809054906101000a900473ffffffffffffffffffffffffffffffffffffffff1673ffffffffffffffffffffffffffffffffffffffff167f8be0079c531659141344cd1fd0a4f28419497f9722a3daafe3b4186f6b6457e060405160405180910390a3806000806101000a81548173ffffffffffffffffffffffffffffffffffffffff021916908373ffffffffffffffffffffffffffffffffffffffff160217905550505600a165627a7a723058201f1195e16bbc2c4ecb0bc2274496bc8999a6a5349040fc4d7d40478c85ae300c0029",
  "source": "pragma solidity ^0.4.24;\r\n\r\nimport \"./Ownable.sol\";\r\n\r\ncontract Admin is Ownable {\r\n\r\n  uint adminCount;\r\n  mapping(address => bool) admins;\r\n\r\n  event addAdminEvent(\r\n    address indexed user\r\n  );\r\n\r\n  event removeAdminEvent(\r\n    address indexed user\r\n  );\r\n\r\n  modifier onlyAdmin {\r\n    require(\r\n      admins[msg.sender] == true,\r\n      \"Only adminstrators are allowed to call this function.\"\r\n    );\r\n    _;\r\n  }\r\n\r\n  modifier isSender(address _address) {\r\n    require(\r\n      _address == msg.sender,\r\n      \"Address must match caller.\"\r\n    );\r\n    _;\r\n  }\r\n\r\n  constructor() public {\r\n    owner = msg.sender;\r\n    admins[msg.sender] = true;\r\n    adminCount = 1;\r\n  }\r\n\r\n  function addAdmin(address _address)\r\n    public\r\n    onlyAdmin\r\n    returns(bool)\r\n  {\r\n    require(\r\n      _address != address(0),\r\n      \"A valid user address must be provided.\"\r\n    );\r\n    admins[_address] = true;\r\n    adminCount++;\r\n    emit addAdminEvent(_address);\r\n    return true;\r\n  }\r\n\r\n  function removeAdmin(address _address)\r\n    public\r\n    onlyAdmin\r\n    returns(bool)\r\n  {\r\n    require(_address != owner, \"Contract owner cannot be removed as admin.\");\r\n    admins[_address] = false;\r\n    adminCount--;\r\n    emit removeAdminEvent(_address);\r\n    return true;\r\n  }\r\n\r\n  function isAdmin(address _address)\r\n    public view\r\n    returns(bool)\r\n  {\r\n    if (admins[_address]) {\r\n      return true;\r\n    } else {\r\n      return false;\r\n    }\r\n  }\r\n\r\n}",
  "sourcePath": "C:\\Users\\DLauterbach\\truffle-projects\\marketplace\\contracts\\Admin.sol",
  "compiler": {
    "name": "solc",
    "version": "0.4.24+commit.e67f0147.Emscripten.clang"
  },
  "schemaVersion": "2.0.1",
  "updatedAt": "2018-08-21T19:59:59.452Z"
}