{
  "contractName": "EternalStorage",
  "abi": [
    {
      "constant": true,
      "inputs": [],
      "name": "owner",
      "outputs": [
        {
          "name": "",
          "type": "address"
        }
      ],
      "payable": false,
      "stateMutability": "view",
      "type": "function"
    },
    {
      "constant": false,
      "inputs": [
        {
          "name": "_newOwner",
          "type": "address"
        }
      ],
      "name": "transferOwnership",
      "outputs": [],
      "payable": false,
      "stateMutability": "nonpayable",
      "type": "function"
    },
    {
      "inputs": [],
      "payable": false,
      "stateMutability": "nonpayable",
      "type": "constructor"
    },
    {
      "anonymous": false,
      "inputs": [
        {
          "indexed": true,
          "name": "previousOwner",
          "type": "address"
        },
        {
          "indexed": true,
          "name": "newOwner",
          "type": "address"
        }
      ],
      "name": "OwnershipTransferred",
      "type": "event"
    },
    {
      "constant": true,
      "inputs": [
        {
          "name": "_record",
          "type": "bytes32"
        }
      ],
      "name": "getUIntValue",
      "outputs": [
        {
          "name": "",
          "type": "uint256"
        }
      ],
      "payable": false,
      "stateMutability": "view",
      "type": "function"
    },
    {
      "constant": false,
      "inputs": [
        {
          "name": "_record",
          "type": "bytes32"
        },
        {
          "name": "_value",
          "type": "uint256"
        }
      ],
      "name": "setUIntValue",
      "outputs": [],
      "payable": false,
      "stateMutability": "nonpayable",
      "type": "function"
    },
    {
      "constant": false,
      "inputs": [
        {
          "name": "_record",
          "type": "bytes32"
        }
      ],
      "name": "deleteUIntValue",
      "outputs": [],
      "payable": false,
      "stateMutability": "nonpayable",
      "type": "function"
    },
    {
      "constant": true,
      "inputs": [
        {
          "name": "_record",
          "type": "bytes32"
        }
      ],
      "name": "getStringValue",
      "outputs": [
        {
          "name": "",
          "type": "string"
        }
      ],
      "payable": false,
      "stateMutability": "view",
      "type": "function"
    },
    {
      "constant": false,
      "inputs": [
        {
          "name": "_record",
          "type": "bytes32"
        },
        {
          "name": "_value",
          "type": "string"
        }
      ],
      "name": "setStringValue",
      "outputs": [],
      "payable": false,
      "stateMutability": "nonpayable",
      "type": "function"
    },
    {
      "constant": false,
      "inputs": [
        {
          "name": "_record",
          "type": "bytes32"
        }
      ],
      "name": "deleteStringValue",
      "outputs": [],
      "payable": false,
      "stateMutability": "nonpayable",
      "type": "function"
    },
    {
      "constant": true,
      "inputs": [
        {
          "name": "_record",
          "type": "bytes32"
        }
      ],
      "name": "getAddressValue",
      "outputs": [
        {
          "name": "",
          "type": "address"
        }
      ],
      "payable": false,
      "stateMutability": "view",
      "type": "function"
    },
    {
      "constant": false,
      "inputs": [
        {
          "name": "_record",
          "type": "bytes32"
        },
        {
          "name": "_value",
          "type": "address"
        }
      ],
      "name": "setAddressValue",
      "outputs": [],
      "payable": false,
      "stateMutability": "nonpayable",
      "type": "function"
    },
    {
      "constant": false,
      "inputs": [
        {
          "name": "_record",
          "type": "bytes32"
        }
      ],
      "name": "deleteAddressValue",
      "outputs": [],
      "payable": false,
      "stateMutability": "nonpayable",
      "type": "function"
    },
    {
      "constant": true,
      "inputs": [
        {
          "name": "_record",
          "type": "bytes32"
        }
      ],
      "name": "getBytesValue",
      "outputs": [
        {
          "name": "",
          "type": "bytes"
        }
      ],
      "payable": false,
      "stateMutability": "view",
      "type": "function"
    },
    {
      "constant": false,
      "inputs": [
        {
          "name": "_record",
          "type": "bytes32"
        },
        {
          "name": "_value",
          "type": "bytes"
        }
      ],
      "name": "setBytesValue",
      "outputs": [],
      "payable": false,
      "stateMutability": "nonpayable",
      "type": "function"
    },
    {
      "constant": false,
      "inputs": [
        {
          "name": "_record",
          "type": "bytes32"
        }
      ],
      "name": "deleteBytesValue",
      "outputs": [],
      "payable": false,
      "stateMutability": "nonpayable",
      "type": "function"
    },
    {
      "constant": true,
      "inputs": [
        {
          "name": "_record",
          "type": "bytes32"
        }
      ],
      "name": "getBytes32Value",
      "outputs": [
        {
          "name": "",
          "type": "bytes32"
        }
      ],
      "payable": false,
      "stateMutability": "view",
      "type": "function"
    },
    {
      "constant": false,
      "inputs": [
        {
          "name": "_record",
          "type": "bytes32"
        },
        {
          "name": "_value",
          "type": "bytes32"
        }
      ],
      "name": "setBytes32Value",
      "outputs": [],
      "payable": false,
      "stateMutability": "nonpayable",
      "type": "function"
    },
    {
      "constant": false,
      "inputs": [
        {
          "name": "_record",
          "type": "bytes32"
        }
      ],
      "name": "deleteBytes32Value",
      "outputs": [],
      "payable": false,
      "stateMutability": "nonpayable",
      "type": "function"
    },
    {
      "constant": true,
      "inputs": [
        {
          "name": "_record",
          "type": "bytes32"
        }
      ],
      "name": "getBooleanValue",
      "outputs": [
        {
          "name": "",
          "type": "bool"
        }
      ],
      "payable": false,
      "stateMutability": "view",
      "type": "function"
    },
    {
      "constant": false,
      "inputs": [
        {
          "name": "_record",
          "type": "bytes32"
        },
        {
          "name": "_value",
          "type": "bool"
        }
      ],
      "name": "setBooleanValue",
      "outputs": [],
      "payable": false,
      "stateMutability": "nonpayable",
      "type": "function"
    },
    {
      "constant": false,
      "inputs": [
        {
          "name": "_record",
          "type": "bytes32"
        }
      ],
      "name": "deleteBooleanValue",
      "outputs": [],
      "payable": false,
      "stateMutability": "nonpayable",
      "type": "function"
    },
    {
      "constant": true,
      "inputs": [
        {
          "name": "_record",
          "type": "bytes32"
        }
      ],
      "name": "getIntValue",
      "outputs": [
        {
          "name": "",
          "type": "int256"
        }
      ],
      "payable": false,
      "stateMutability": "view",
      "type": "function"
    },
    {
      "constant": false,
      "inputs": [
        {
          "name": "_record",
          "type": "bytes32"
        },
        {
          "name": "_value",
          "type": "int256"
        }
      ],
      "name": "setIntValue",
      "outputs": [],
      "payable": false,
      "stateMutability": "nonpayable",
      "type": "function"
    },
    {
      "constant": false,
      "inputs": [
        {
          "name": "_record",
          "type": "bytes32"
        }
      ],
      "name": "deleteIntValue",
      "outputs": [],
      "payable": false,
      "stateMutability": "nonpayable",
      "type": "function"
    }
  ],
  "bytecode": "0x6080604052336000806101000a81548173ffffffffffffffffffffffffffffffffffffffff021916908373ffffffffffffffffffffffffffffffffffffffff16021790555034801561005057600080fd5b5061158a806100606000396000f300608060405260043610610133576000357c0100000000000000000000000000000000000000000000000000000000900463ffffffff168063025ec81a14610138578063043106c0146101855780630c55d925146101b6578063124f2418146101e757806317e7dd221461021857806325cf512d146102615780633562fd20146102a05780633cc1635c146102db5780633eba9ed21461030c57806344bfa56e146103495780634c77e5ba146103f35780635a2bf25a146104645780638267a9ee146104b55780638da5cb5b146104e65780639007127b1461053d57806393fe424814610582578063a209a29c146105b3578063a77aa49e1461065d578063ba69fcaa14610698578063bdc963d8146106c9578063c9a52d2c1461070e578063f2fde38b14610785578063f5866066146107c8575b600080fd5b34801561014457600080fd5b50610167600480360381019080803560001916906020019092919050505061083f565b60405180826000191660001916815260200191505060405180910390f35b34801561019157600080fd5b506101b46004803603810190808035600019169060200190929190505050610864565b005b3480156101c257600080fd5b506101e56004803603810190808035600019169060200190929190505050610900565b005b3480156101f357600080fd5b506102166004803603810190808035600019169060200190929190505050610985565b005b34801561022457600080fd5b506102476004803603810190808035600019169060200190929190505050610a02565b604051808215151515815260200191505060405180910390f35b34801561026d57600080fd5b5061029e60048036038101908080356000191690602001909291908035600019169060200190929190505050610a34565b005b3480156102ac57600080fd5b506102d9600480360381019080803560001916906020019092919080359060200190929190505050610ab7565b005b3480156102e757600080fd5b5061030a6004803603810190808035600019169060200190929190505050610b36565b005b34801561031857600080fd5b506103476004803603810190808035600019169060200190929190803515159060200190929190505050610bbf565b005b34801561035557600080fd5b506103786004803603810190808035600019169060200190929190505050610c51565b6040518080602001828103825283818151815260200191508051906020019080838360005b838110156103b857808201518184015260208101905061039d565b50505050905090810190601f1680156103e55780820380516001836020036101000a031916815260200191505b509250505060405180910390f35b3480156103ff57600080fd5b506104226004803603810190808035600019169060200190929190505050610d0e565b604051808273ffffffffffffffffffffffffffffffffffffffff1673ffffffffffffffffffffffffffffffffffffffff16815260200191505060405180910390f35b34801561047057600080fd5b506104b36004803603810190808035600019169060200190929190803573ffffffffffffffffffffffffffffffffffffffff169060200190929190505050610d53565b005b3480156104c157600080fd5b506104e46004803603810190808035600019169060200190929190505050610e0c565b005b3480156104f257600080fd5b506104fb610e89565b604051808273ffffffffffffffffffffffffffffffffffffffff1673ffffffffffffffffffffffffffffffffffffffff16815260200191505060405180910390f35b34801561054957600080fd5b5061056c6004803603810190808035600019169060200190929190505050610eae565b6040518082815260200191505060405180910390f35b34801561058e57600080fd5b506105b16004803603810190808035600019169060200190929190505050610ed3565b005b3480156105bf57600080fd5b506105e26004803603810190808035600019169060200190929190505050610f50565b6040518080602001828103825283818151815260200191508051906020019080838360005b83811015610622578082015181840152602081019050610607565b50505050905090810190601f16801561064f5780820380516001836020036101000a031916815260200191505b509250505060405180910390f35b34801561066957600080fd5b5061069660048036038101908080356000191690602001909291908035906020019092919050505061100d565b005b3480156106a457600080fd5b506106c7600480360381019080803560001916906020019092919050505061108c565b005b3480156106d557600080fd5b506106f86004803603810190808035600019169060200190929190505050611111565b6040518082815260200191505060405180910390f35b34801561071a57600080fd5b506107836004803603810190808035600019169060200190929190803590602001908201803590602001908080601f0160208091040260200160405190810160405280939291908181526020018383808284378201915050505050509192919290505050611136565b005b34801561079157600080fd5b506107c6600480360381019080803573ffffffffffffffffffffffffffffffffffffffff1690602001909291905050506111c5565b005b3480156107d457600080fd5b5061083d6004803603810190808035600019169060200190929190803590602001908201803590602001908080601f016020809104026020016040519081016040528093929190818152602001838380828437820191505050505050919291929050505061131a565b005b6000600560008360001916600019168152602001908152602001600020549050919050565b6000809054906101000a900473ffffffffffffffffffffffffffffffffffffffff1673ffffffffffffffffffffffffffffffffffffffff163373ffffffffffffffffffffffffffffffffffffffff161415156108bf57600080fd5b60036000826000191660001916815260200190815260200160002060006101000a81549073ffffffffffffffffffffffffffffffffffffffff021916905550565b6000809054906101000a900473ffffffffffffffffffffffffffffffffffffffff1673ffffffffffffffffffffffffffffffffffffffff163373ffffffffffffffffffffffffffffffffffffffff1614151561095b57600080fd5b600460008260001916600019168152602001908152602001600020600061098291906113a9565b50565b6000809054906101000a900473ffffffffffffffffffffffffffffffffffffffff1673ffffffffffffffffffffffffffffffffffffffff163373ffffffffffffffffffffffffffffffffffffffff161415156109e057600080fd5b6005600082600019166000191681526020019081526020016000206000905550565b600060066000836000191660001916815260200190815260200160002060009054906101000a900460ff169050919050565b6000809054906101000a900473ffffffffffffffffffffffffffffffffffffffff1673ffffffffffffffffffffffffffffffffffffffff163373ffffffffffffffffffffffffffffffffffffffff16141515610a8f57600080fd5b8060056000846000191660001916815260200190815260200160002081600019169055505050565b6000809054906101000a900473ffffffffffffffffffffffffffffffffffffffff1673ffffffffffffffffffffffffffffffffffffffff163373ffffffffffffffffffffffffffffffffffffffff16141515610b1257600080fd5b80600160008460001916600019168152602001908152602001600020819055505050565b6000809054906101000a900473ffffffffffffffffffffffffffffffffffffffff1673ffffffffffffffffffffffffffffffffffffffff163373ffffffffffffffffffffffffffffffffffffffff16141515610b9157600080fd5b60066000826000191660001916815260200190815260200160002060006101000a81549060ff021916905550565b6000809054906101000a900473ffffffffffffffffffffffffffffffffffffffff1673ffffffffffffffffffffffffffffffffffffffff163373ffffffffffffffffffffffffffffffffffffffff16141515610c1a57600080fd5b8060066000846000191660001916815260200190815260200160002060006101000a81548160ff0219169083151502179055505050565b60606004600083600019166000191681526020019081526020016000208054600181600116156101000203166002900480601f016020809104026020016040519081016040528092919081815260200182805460018160011615610100020316600290048015610d025780601f10610cd757610100808354040283529160200191610d02565b820191906000526020600020905b815481529060010190602001808311610ce557829003601f168201915b50505050509050919050565b600060036000836000191660001916815260200190815260200160002060009054906101000a900473ffffffffffffffffffffffffffffffffffffffff169050919050565b6000809054906101000a900473ffffffffffffffffffffffffffffffffffffffff1673ffffffffffffffffffffffffffffffffffffffff163373ffffffffffffffffffffffffffffffffffffffff16141515610dae57600080fd5b8060036000846000191660001916815260200190815260200160002060006101000a81548173ffffffffffffffffffffffffffffffffffffffff021916908373ffffffffffffffffffffffffffffffffffffffff1602179055505050565b6000809054906101000a900473ffffffffffffffffffffffffffffffffffffffff1673ffffffffffffffffffffffffffffffffffffffff163373ffffffffffffffffffffffffffffffffffffffff16141515610e6757600080fd5b6007600082600019166000191681526020019081526020016000206000905550565b6000809054906101000a900473ffffffffffffffffffffffffffffffffffffffff1681565b6000600760008360001916600019168152602001908152602001600020549050919050565b6000809054906101000a900473ffffffffffffffffffffffffffffffffffffffff1673ffffffffffffffffffffffffffffffffffffffff163373ffffffffffffffffffffffffffffffffffffffff16141515610f2e57600080fd5b6001600082600019166000191681526020019081526020016000206000905550565b60606002600083600019166000191681526020019081526020016000208054600181600116156101000203166002900480601f0160208091040260200160405190810160405280929190818152602001828054600181600116156101000203166002900480156110015780601f10610fd657610100808354040283529160200191611001565b820191906000526020600020905b815481529060010190602001808311610fe457829003601f168201915b50505050509050919050565b6000809054906101000a900473ffffffffffffffffffffffffffffffffffffffff1673ffffffffffffffffffffffffffffffffffffffff163373ffffffffffffffffffffffffffffffffffffffff1614151561106857600080fd5b80600760008460001916600019168152602001908152602001600020819055505050565b6000809054906101000a900473ffffffffffffffffffffffffffffffffffffffff1673ffffffffffffffffffffffffffffffffffffffff163373ffffffffffffffffffffffffffffffffffffffff161415156110e757600080fd5b600260008260001916600019168152602001908152602001600020600061110e91906113f1565b50565b6000600160008360001916600019168152602001908152602001600020549050919050565b6000809054906101000a900473ffffffffffffffffffffffffffffffffffffffff1673ffffffffffffffffffffffffffffffffffffffff163373ffffffffffffffffffffffffffffffffffffffff1614151561119157600080fd5b8060046000846000191660001916815260200190815260200160002090805190602001906111c0929190611439565b505050565b6000809054906101000a900473ffffffffffffffffffffffffffffffffffffffff1673ffffffffffffffffffffffffffffffffffffffff163373ffffffffffffffffffffffffffffffffffffffff1614151561122057600080fd5b600073ffffffffffffffffffffffffffffffffffffffff168173ffffffffffffffffffffffffffffffffffffffff161415151561125c57600080fd5b8073ffffffffffffffffffffffffffffffffffffffff166000809054906101000a900473ffffffffffffffffffffffffffffffffffffffff1673ffffffffffffffffffffffffffffffffffffffff167f8be0079c531659141344cd1fd0a4f28419497f9722a3daafe3b4186f6b6457e060405160405180910390a3806000806101000a81548173ffffffffffffffffffffffffffffffffffffffff021916908373ffffffffffffffffffffffffffffffffffffffff16021790555050565b6000809054906101000a900473ffffffffffffffffffffffffffffffffffffffff1673ffffffffffffffffffffffffffffffffffffffff163373ffffffffffffffffffffffffffffffffffffffff1614151561137557600080fd5b8060026000846000191660001916815260200190815260200160002090805190602001906113a49291906114b9565b505050565b50805460018160011615610100020316600290046000825580601f106113cf57506113ee565b601f0160209004906000526020600020908101906113ed9190611539565b5b50565b50805460018160011615610100020316600290046000825580601f106114175750611436565b601f0160209004906000526020600020908101906114359190611539565b5b50565b828054600181600116156101000203166002900490600052602060002090601f016020900481019282601f1061147a57805160ff19168380011785556114a8565b828001600101855582156114a8579182015b828111156114a757825182559160200191906001019061148c565b5b5090506114b59190611539565b5090565b828054600181600116156101000203166002900490600052602060002090601f016020900481019282601f106114fa57805160ff1916838001178555611528565b82800160010185558215611528579182015b8281111561152757825182559160200191906001019061150c565b5b5090506115359190611539565b5090565b61155b91905b8082111561155757600081600090555060010161153f565b5090565b905600a165627a7a723058201ce4fdb047b567c4b6f6099d3aa86638529d385b7b831fdbc7dd5868c0efab700029",
  "source": "pragma solidity ^0.4.24;\r\n\r\nimport \"./Ownable.sol\";\r\n\r\ncontract EternalStorage is Ownable {\r\n\r\n  constructor() public {\r\n  }\r\n\r\n  mapping(bytes32 => uint) UIntStorage;\r\n\r\n  function getUIntValue(bytes32 _record) public view returns (uint) {\r\n    return UIntStorage[_record];\r\n  }\r\n\r\n  function setUIntValue(bytes32 _record, uint _value) public onlyOwner {\r\n    UIntStorage[_record] = _value;\r\n  }\r\n\r\n  function deleteUIntValue(bytes32 _record) public onlyOwner {\r\n    delete UIntStorage[_record];\r\n  }\r\n\r\n  mapping(bytes32 => string) StringStorage;\r\n\r\n  function getStringValue(bytes32 _record) public view returns (string) {\r\n    return StringStorage[_record];\r\n  }\r\n\r\n  function setStringValue(bytes32 _record, string _value) public onlyOwner {\r\n    StringStorage[_record] = _value;\r\n  }\r\n\r\n  function deleteStringValue(bytes32 _record) public onlyOwner {\r\n    delete StringStorage[_record];\r\n  }\r\n\r\n  mapping(bytes32 => address) AddressStorage;\r\n\r\n  function getAddressValue(bytes32 _record) public view returns (address){\r\n    return AddressStorage[_record];\r\n  }\r\n\r\n  function setAddressValue(bytes32 _record, address _value) public onlyOwner\r\n  {\r\n    AddressStorage[_record] = _value;\r\n  }\r\n\r\n  function deleteAddressValue(bytes32 _record) public onlyOwner\r\n  {\r\n    delete AddressStorage[_record];\r\n  }\r\n\r\n  mapping(bytes32 => bytes) BytesStorage;\r\n\r\n  function getBytesValue(bytes32 _record) public view returns (bytes) {\r\n    return BytesStorage[_record];\r\n  }\r\n\r\n  function setBytesValue(bytes32 _record, bytes _value) public onlyOwner {\r\n    BytesStorage[_record] = _value;\r\n  }\r\n\r\n  function deleteBytesValue(bytes32 _record) public onlyOwner {\r\n    delete BytesStorage[_record];\r\n  }\r\n\r\n  mapping(bytes32 => bytes32) Bytes32Storage;\r\n\r\n  function getBytes32Value(bytes32 _record) public view returns (bytes32){\r\n    return Bytes32Storage[_record];\r\n  }\r\n\r\n  function setBytes32Value(bytes32 _record, bytes32 _value) public onlyOwner {\r\n    Bytes32Storage[_record] = _value;\r\n  }\r\n\r\n  function deleteBytes32Value(bytes32 _record) public onlyOwner\r\n  {\r\n    delete Bytes32Storage[_record];\r\n  }\r\n\r\n  mapping(bytes32 => bool) BooleanStorage;\r\n\r\n  function getBooleanValue(bytes32 _record) public view returns (bool){\r\n    return BooleanStorage[_record];\r\n  }\r\n\r\n  function setBooleanValue(bytes32 _record, bool _value) public onlyOwner {\r\n    BooleanStorage[_record] = _value;\r\n  }\r\n\r\n  function deleteBooleanValue(bytes32 _record) public onlyOwner {\r\n    delete BooleanStorage[_record];\r\n  }\r\n\r\n  mapping(bytes32 => int) IntStorage;\r\n\r\n  function getIntValue(bytes32 _record) public view returns (int) {\r\n    return IntStorage[_record];\r\n  }\r\n\r\n  function setIntValue(bytes32 _record, int _value) public onlyOwner {\r\n    IntStorage[_record] = _value;\r\n  }\r\n\r\n  function deleteIntValue(bytes32 _record) public onlyOwner {\r\n    delete IntStorage[_record];\r\n  }\r\n}",
  "sourcePath": "C:\\Users\\DLauterbach\\truffle-projects\\marketplace\\contracts\\EternalStorage.sol",
  "compiler": {
    "name": "solc",
    "version": "0.4.24+commit.e67f0147.Emscripten.clang"
  },
  "schemaVersion": "2.0.1",
  "updatedAt": "2018-08-23T20:57:23.958Z"
}