{
  "contractName": "ListingsLibrary",
  "abi": [
    {
      "constant": true,
      "inputs": [
        {
          "name": "_storageContract",
          "type": "address"
        }
      ],
      "name": "getListingCount",
      "outputs": [
        {
          "name": "",
          "type": "uint256"
        }
      ],
      "payable": false,
      "stateMutability": "view",
      "type": "function"
    },
    {
      "constant": false,
      "inputs": [
        {
          "name": "_storageContract",
          "type": "address"
        },
        {
          "name": "_title",
          "type": "string"
        },
        {
          "name": "_description",
          "type": "string"
        },
        {
          "name": "_price",
          "type": "uint256"
        },
        {
          "name": "_seller",
          "type": "address"
        },
        {
          "name": "_buyer",
          "type": "address"
        }
      ],
      "name": "createListing",
      "outputs": [],
      "payable": false,
      "stateMutability": "nonpayable",
      "type": "function"
    }
  ],
  "bytecode": "0x610b2e610030600b82828239805160001a6073146000811461002057610022565bfe5b5030600052607381538281f3007300000000000000000000000000000000000000003014608060405260043610610063576000357c0100000000000000000000000000000000000000000000000000000000900463ffffffff1680630b57098f14610068578063442b92c014610181575b600080fd5b81801561007457600080fd5b5061017f600480360381019080803573ffffffffffffffffffffffffffffffffffffffff169060200190929190803590602001908201803590602001908080601f0160208091040260200160405190810160405280939291908181526020018383808284378201915050505050509192919290803590602001908201803590602001908080601f016020809104026020016040519081016040528093929190818152602001838380828437820191505050505050919291929080359060200190929190803573ffffffffffffffffffffffffffffffffffffffff169060200190929190803573ffffffffffffffffffffffffffffffffffffffff1690602001909291905050506101cb565b005b6101b5600480360381019080803573ffffffffffffffffffffffffffffffffffffffff169060200190929190505050610a12565b6040518082815260200191505060405180910390f35b600060016101d888610a12565b0190508673ffffffffffffffffffffffffffffffffffffffff16633562fd2060405180807f4c697374696e67436f756e740000000000000000000000000000000000000000815250600c0190506040518091039020836040518363ffffffff167c010000000000000000000000000000000000000000000000000000000002815260040180836000191660001916815260200182815260200192505050600060405180830381600087803b15801561028f57600080fd5b505af11580156102a3573d6000803e3d6000fd5b505050508673ffffffffffffffffffffffffffffffffffffffff1663f58660668260405160200180807f6c697374696e675f7469746c6500000000000000000000000000000000000000815250600d018281526020019150506040516020818303038152906040526040518082805190602001908083835b602083101515610340578051825260208201915060208101905060208303925061031b565b6001836020036101000a0380198251168184511680821785525050505050509050019150506040518091039020886040518363ffffffff167c010000000000000000000000000000000000000000000000000000000002815260040180836000191660001916815260200180602001828103825283818151815260200191508051906020019080838360005b838110156103e75780820151818401526020810190506103cc565b50505050905090810190601f1680156104145780820380516001836020036101000a031916815260200191505b509350505050600060405180830381600087803b15801561043457600080fd5b505af1158015610448573d6000803e3d6000fd5b505050508673ffffffffffffffffffffffffffffffffffffffff1663f58660668260405160200180807f6c697374696e675f6465736372697074696f6e000000000000000000000000008152506013018281526020019150506040516020818303038152906040526040518082805190602001908083835b6020831015156104e557805182526020820191506020810190506020830392506104c0565b6001836020036101000a0380198251168184511680821785525050505050509050019150506040518091039020876040518363ffffffff167c010000000000000000000000000000000000000000000000000000000002815260040180836000191660001916815260200180602001828103825283818151815260200191508051906020019080838360005b8381101561058c578082015181840152602081019050610571565b50505050905090810190601f1680156105b95780820380516001836020036101000a031916815260200191505b509350505050600060405180830381600087803b1580156105d957600080fd5b505af11580156105ed573d6000803e3d6000fd5b505050508673ffffffffffffffffffffffffffffffffffffffff16633562fd208260405160200180807f6c697374696e675f707269636500000000000000000000000000000000000000815250600d018281526020019150506040516020818303038152906040526040518082805190602001908083835b60208310151561068a5780518252602082019150602081019050602083039250610665565b6001836020036101000a0380198251168184511680821785525050505050509050019150506040518091039020866040518363ffffffff167c010000000000000000000000000000000000000000000000000000000002815260040180836000191660001916815260200182815260200192505050600060405180830381600087803b15801561071957600080fd5b505af115801561072d573d6000803e3d6000fd5b505050508673ffffffffffffffffffffffffffffffffffffffff16635a2bf25a8260405160200180807f6c697374696e675f73656c6c6572000000000000000000000000000000000000815250600e018281526020019150506040516020818303038152906040526040518082805190602001908083835b6020831015156107ca57805182526020820191506020810190506020830392506107a5565b6001836020036101000a0380198251168184511680821785525050505050509050019150506040518091039020856040518363ffffffff167c01000000000000000000000000000000000000000000000000000000000281526004018083600019166000191681526020018273ffffffffffffffffffffffffffffffffffffffff1673ffffffffffffffffffffffffffffffffffffffff16815260200192505050600060405180830381600087803b15801561088557600080fd5b505af1158015610899573d6000803e3d6000fd5b505050508673ffffffffffffffffffffffffffffffffffffffff16635a2bf25a8260405160200180807f6c697374696e675f627579657200000000000000000000000000000000000000815250600d018281526020019150506040516020818303038152906040526040518082805190602001908083835b6020831015156109365780518252602082019150602081019050602083039250610911565b6001836020036101000a0380198251168184511680821785525050505050509050019150506040518091039020846040518363ffffffff167c01000000000000000000000000000000000000000000000000000000000281526004018083600019166000191681526020018273ffffffffffffffffffffffffffffffffffffffff1673ffffffffffffffffffffffffffffffffffffffff16815260200192505050600060405180830381600087803b1580156109f157600080fd5b505af1158015610a05573d6000803e3d6000fd5b5050505050505050505050565b60008173ffffffffffffffffffffffffffffffffffffffff1663bdc963d860405180807f4c697374696e67436f756e740000000000000000000000000000000000000000815250600c01905060405180910390206040518263ffffffff167c0100000000000000000000000000000000000000000000000000000000028152600401808260001916600019168152602001915050602060405180830381600087803b158015610ac057600080fd5b505af1158015610ad4573d6000803e3d6000fd5b505050506040513d6020811015610aea57600080fd5b810190808051906020019092919050505090509190505600a165627a7a72305820880578d154428e49187699926012ee8419d4f08b2ae186657c654fa3686d31df0029",
  "source": "pragma solidity ^0.4.24;\r\n\r\nimport \"./EternalStorage.sol\";\r\n\r\n/** @title ListingsLibrary */\r\nlibrary ListingsLibrary {\r\n\r\n  /** @dev Library function to get number of listings.\r\n    * @return Listing count.\r\n    */\r\n  function getListingCount(address _storageContract) public view returns(uint) \r\n  {\r\n    return EternalStorage(_storageContract).getUIntValue(keccak256(\"ListingCount\"));\r\n  } \r\n\t\r\n  /** @dev Library function to save a listing in instance of EternalStorage contract.\r\n    * @param _storageContract - Instance of EternalStorage.\r\n    * @param _title - Title of the listing.\r\n    * @param _description - Description of the listing.\r\n    * @param _price - Price of the listing.\r\n    * @param _seller - Seller of the listing.\r\n    * @param _buyer - Buyer of the listing.\r\n    */\r\n  function createListing(address _storageContract, string _title, string _description, uint _price, address _seller, address _buyer) \r\n  public\r\n  {\r\n    uint idx = getListingCount(_storageContract) + 1;\r\n    EternalStorage(_storageContract).setUIntValue(keccak256(\"ListingCount\"), idx);\r\n    EternalStorage(_storageContract).setStringValue(keccak256(abi.encodePacked(\"listing_title\", idx)), _title);\r\n    EternalStorage(_storageContract).setStringValue(keccak256(abi.encodePacked(\"listing_description\", idx)), _description);\r\n    EternalStorage(_storageContract).setUIntValue(keccak256(abi.encodePacked(\"listing_price\", idx)), _price);\r\n    EternalStorage(_storageContract).setAddressValue(keccak256(abi.encodePacked(\"listing_seller\", idx)), _seller);\r\n    EternalStorage(_storageContract).setAddressValue(keccak256(abi.encodePacked(\"listing_buyer\", idx)), _buyer);\r\n  }\r\n\r\n}",
  "sourcePath": "C:\\Users\\DLauterbach\\truffle-projects\\marketplace\\contracts\\ListingsLibrary.sol",
  "compiler": {
    "name": "solc",
    "version": "0.4.24+commit.e67f0147.Emscripten.clang"
  },
  "schemaVersion": "2.0.1",
  "updatedAt": "2018-08-23T20:57:23.956Z"
}