{
  "contractName": "MarketPlace",
  "abi": [
    {
      "constant": true,
      "inputs": [],
      "name": "owner",
      "outputs": [
        {
          "name": "",
          "type": "address"
        }
      ],
      "payable": false,
      "stateMutability": "view",
      "type": "function"
    },
    {
      "constant": true,
      "inputs": [],
      "name": "eternalStorage",
      "outputs": [
        {
          "name": "",
          "type": "address"
        }
      ],
      "payable": false,
      "stateMutability": "view",
      "type": "function"
    },
    {
      "constant": false,
      "inputs": [
        {
          "name": "_newOwner",
          "type": "address"
        }
      ],
      "name": "transferOwnership",
      "outputs": [],
      "payable": false,
      "stateMutability": "nonpayable",
      "type": "function"
    },
    {
      "inputs": [],
      "payable": false,
      "stateMutability": "nonpayable",
      "type": "constructor"
    },
    {
      "anonymous": false,
      "inputs": [
        {
          "indexed": true,
          "name": "listingId",
          "type": "uint256"
        }
      ],
      "name": "createListingEvent",
      "type": "event"
    },
    {
      "anonymous": false,
      "inputs": [
        {
          "indexed": true,
          "name": "listingId",
          "type": "uint256"
        }
      ],
      "name": "buyListingEvent",
      "type": "event"
    },
    {
      "anonymous": false,
      "inputs": [
        {
          "indexed": true,
          "name": "listingId",
          "type": "uint256"
        }
      ],
      "name": "cancelListingEvent",
      "type": "event"
    },
    {
      "anonymous": false,
      "inputs": [
        {
          "indexed": true,
          "name": "user",
          "type": "address"
        }
      ],
      "name": "addAdminEvent",
      "type": "event"
    },
    {
      "anonymous": false,
      "inputs": [
        {
          "indexed": true,
          "name": "user",
          "type": "address"
        }
      ],
      "name": "removeAdminEvent",
      "type": "event"
    },
    {
      "anonymous": false,
      "inputs": [
        {
          "indexed": true,
          "name": "previousOwner",
          "type": "address"
        },
        {
          "indexed": true,
          "name": "newOwner",
          "type": "address"
        }
      ],
      "name": "OwnershipTransferred",
      "type": "event"
    },
    {
      "constant": false,
      "inputs": [],
      "name": "lock",
      "outputs": [],
      "payable": false,
      "stateMutability": "nonpayable",
      "type": "function"
    },
    {
      "constant": false,
      "inputs": [],
      "name": "unlock",
      "outputs": [],
      "payable": false,
      "stateMutability": "nonpayable",
      "type": "function"
    },
    {
      "constant": true,
      "inputs": [],
      "name": "isFrozen",
      "outputs": [
        {
          "name": "",
          "type": "bool"
        }
      ],
      "payable": false,
      "stateMutability": "view",
      "type": "function"
    },
    {
      "constant": false,
      "inputs": [
        {
          "name": "_title",
          "type": "string"
        },
        {
          "name": "_description",
          "type": "string"
        },
        {
          "name": "_price",
          "type": "uint256"
        }
      ],
      "name": "createListing",
      "outputs": [],
      "payable": false,
      "stateMutability": "nonpayable",
      "type": "function"
    },
    {
      "constant": false,
      "inputs": [
        {
          "name": "_id",
          "type": "uint256"
        }
      ],
      "name": "buyListing",
      "outputs": [],
      "payable": true,
      "stateMutability": "payable",
      "type": "function"
    },
    {
      "constant": false,
      "inputs": [
        {
          "name": "_id",
          "type": "uint256"
        }
      ],
      "name": "cancelListing",
      "outputs": [],
      "payable": false,
      "stateMutability": "nonpayable",
      "type": "function"
    },
    {
      "constant": true,
      "inputs": [
        {
          "name": "_id",
          "type": "uint256"
        }
      ],
      "name": "getListing",
      "outputs": [
        {
          "name": "_title",
          "type": "string"
        },
        {
          "name": "_description",
          "type": "string"
        },
        {
          "name": "_price",
          "type": "uint256"
        },
        {
          "name": "_seller",
          "type": "address"
        },
        {
          "name": "_buyer",
          "type": "address"
        }
      ],
      "payable": false,
      "stateMutability": "view",
      "type": "function"
    },
    {
      "constant": false,
      "inputs": [
        {
          "name": "_user",
          "type": "address"
        }
      ],
      "name": "addAdmin",
      "outputs": [],
      "payable": false,
      "stateMutability": "nonpayable",
      "type": "function"
    },
    {
      "constant": false,
      "inputs": [
        {
          "name": "_user",
          "type": "address"
        }
      ],
      "name": "removeAdmin",
      "outputs": [],
      "payable": false,
      "stateMutability": "nonpayable",
      "type": "function"
    },
    {
      "constant": true,
      "inputs": [
        {
          "name": "_user",
          "type": "address"
        }
      ],
      "name": "isAdmin",
      "outputs": [
        {
          "name": "",
          "type": "bool"
        }
      ],
      "payable": false,
      "stateMutability": "view",
      "type": "function"
    }
  ],
  "bytecode": "0x6080604052336000806101000a81548173ffffffffffffffffffffffffffffffffffffffff021916908373ffffffffffffffffffffffffffffffffffffffff1602179055503480156200005157600080fd5b506000600160146101000a81548160ff021916908315150217905550620000776200013b565b604051809103906000f08015801562000094573d6000803e3d6000fd5b50600160006101000a81548173ffffffffffffffffffffffffffffffffffffffff021916908373ffffffffffffffffffffffffffffffffffffffff1602179055506001600360003373ffffffffffffffffffffffffffffffffffffffff1673ffffffffffffffffffffffffffffffffffffffff16815260200190815260200160002060006101000a81548160ff02191690831515021790555060016002819055506200014c565b6040516115ea806200300b83390190565b612eaf806200015c6000396000f3006080604052600436106100c5576000357c0100000000000000000000000000000000000000000000000000000000900463ffffffff168063107a274a146100ca5780631785f53c1461024957806324d7806c1461028c578063305a67a8146102e757806333eeb147146103145780634652c3e2146103435780634884f459146103fc578063704802751461041c5780638da5cb5b1461045f57806398ff9c54146104b6578063a69df4b51461050d578063f2fde38b14610524578063f83d08ba14610567575b600080fd5b3480156100d657600080fd5b506100f56004803603810190808035906020019092919050505061057e565b6040518080602001806020018681526020018573ffffffffffffffffffffffffffffffffffffffff1673ffffffffffffffffffffffffffffffffffffffff1681526020018473ffffffffffffffffffffffffffffffffffffffff1673ffffffffffffffffffffffffffffffffffffffff168152602001838103835288818151815260200191508051906020019080838360005b838110156101a3578082015181840152602081019050610188565b50505050905090810190601f1680156101d05780820380516001836020036101000a031916815260200191505b50838103825287818151815260200191508051906020019080838360005b838110156102095780820151818401526020810190506101ee565b50505050905090810190601f1680156102365780820380516001836020036101000a031916815260200191505b5097505050505050505060405180910390f35b34801561025557600080fd5b5061028a600480360381019080803573ffffffffffffffffffffffffffffffffffffffff169060200190929190505050610db6565b005b34801561029857600080fd5b506102cd600480360381019080803573ffffffffffffffffffffffffffffffffffffffff169060200190929190505050611040565b604051808215151515815260200191505060405180910390f35b3480156102f357600080fd5b50610312600480360381019080803590602001909291905050506110a7565b005b34801561032057600080fd5b506103296116b8565b604051808215151515815260200191505060405180910390f35b34801561034f57600080fd5b506103fa600480360381019080803590602001908201803590602001908080601f0160208091040260200160405190810160405280939291908181526020018383808284378201915050505050509192919290803590602001908201803590602001908080601f0160208091040260200160405190810160405280939291908181526020018383808284378201915050505050509192919290803590602001909291905050506116e0565b005b61041a60048036038101908080359060200190929190505050611d09565b005b34801561042857600080fd5b5061045d600480360381019080803573ffffffffffffffffffffffffffffffffffffffff169060200190929190505050612710565b005b34801561046b57600080fd5b50610474612979565b604051808273ffffffffffffffffffffffffffffffffffffffff1673ffffffffffffffffffffffffffffffffffffffff16815260200191505060405180910390f35b3480156104c257600080fd5b506104cb61299e565b604051808273ffffffffffffffffffffffffffffffffffffffff1673ffffffffffffffffffffffffffffffffffffffff16815260200191505060405180910390f35b34801561051957600080fd5b506105226129c4565b005b34801561053057600080fd5b50610565600480360381019080803573ffffffffffffffffffffffffffffffffffffffff169060200190929190505050612b79565b005b34801561057357600080fd5b5061057c612cce565b005b6060806000806000600160009054906101000a900473ffffffffffffffffffffffffffffffffffffffff1673ffffffffffffffffffffffffffffffffffffffff1663a209a29c8760405160200180807f6c697374696e675f7469746c6500000000000000000000000000000000000000815250600d018281526020019150506040516020818303038152906040526040518082805190602001908083835b602083101515610641578051825260208201915060208101905060208303925061061c565b6001836020036101000a03801982511681845116808217855250505050505090500191505060405180910390206040518263ffffffff167c0100000000000000000000000000000000000000000000000000000000028152600401808260001916600019168152602001915050600060405180830381600087803b1580156106c857600080fd5b505af11580156106dc573d6000803e3d6000fd5b505050506040513d6000823e3d601f19601f82011682018060405250602081101561070657600080fd5b81019080805164010000000081111561071e57600080fd5b8281019050602081018481111561073457600080fd5b815185600182028301116401000000008211171561075157600080fd5b5050929190505050600160009054906101000a900473ffffffffffffffffffffffffffffffffffffffff1673ffffffffffffffffffffffffffffffffffffffff1663a209a29c8860405160200180807f6c697374696e675f6465736372697074696f6e000000000000000000000000008152506013018281526020019150506040516020818303038152906040526040518082805190602001908083835b60208310151561081457805182526020820191506020810190506020830392506107ef565b6001836020036101000a03801982511681845116808217855250505050505090500191505060405180910390206040518263ffffffff167c0100000000000000000000000000000000000000000000000000000000028152600401808260001916600019168152602001915050600060405180830381600087803b15801561089b57600080fd5b505af11580156108af573d6000803e3d6000fd5b505050506040513d6000823e3d601f19601f8201168201806040525060208110156108d957600080fd5b8101908080516401000000008111156108f157600080fd5b8281019050602081018481111561090757600080fd5b815185600182028301116401000000008211171561092457600080fd5b5050929190505050600160009054906101000a900473ffffffffffffffffffffffffffffffffffffffff1673ffffffffffffffffffffffffffffffffffffffff1663bdc963d88960405160200180807f6c697374696e675f707269636500000000000000000000000000000000000000815250600d018281526020019150506040516020818303038152906040526040518082805190602001908083835b6020831015156109e757805182526020820191506020810190506020830392506109c2565b6001836020036101000a03801982511681845116808217855250505050505090500191505060405180910390206040518263ffffffff167c0100000000000000000000000000000000000000000000000000000000028152600401808260001916600019168152602001915050602060405180830381600087803b158015610a6e57600080fd5b505af1158015610a82573d6000803e3d6000fd5b505050506040513d6020811015610a9857600080fd5b8101908080519060200190929190505050600160009054906101000a900473ffffffffffffffffffffffffffffffffffffffff1673ffffffffffffffffffffffffffffffffffffffff16634c77e5ba8a60405160200180807f6c697374696e675f73656c6c6572000000000000000000000000000000000000815250600e018281526020019150506040516020818303038152906040526040518082805190602001908083835b602083101515610b645780518252602082019150602081019050602083039250610b3f565b6001836020036101000a03801982511681845116808217855250505050505090500191505060405180910390206040518263ffffffff167c0100000000000000000000000000000000000000000000000000000000028152600401808260001916600019168152602001915050602060405180830381600087803b158015610beb57600080fd5b505af1158015610bff573d6000803e3d6000fd5b505050506040513d6020811015610c1557600080fd5b8101908080519060200190929190505050600160009054906101000a900473ffffffffffffffffffffffffffffffffffffffff1673ffffffffffffffffffffffffffffffffffffffff16634c77e5ba8b60405160200180807f6c697374696e675f627579657200000000000000000000000000000000000000815250600d018281526020019150506040516020818303038152906040526040518082805190602001908083835b602083101515610ce15780518252602082019150602081019050602083039250610cbc565b6001836020036101000a03801982511681845116808217855250505050505090500191505060405180910390206040518263ffffffff167c0100000000000000000000000000000000000000000000000000000000028152600401808260001916600019168152602001915050602060405180830381600087803b158015610d6857600080fd5b505af1158015610d7c573d6000803e3d6000fd5b505050506040513d6020811015610d9257600080fd5b81019080805190602001909291905050509450945094509450945091939590929450565b60011515600360003373ffffffffffffffffffffffffffffffffffffffff1673ffffffffffffffffffffffffffffffffffffffff16815260200190815260200160002060009054906101000a900460ff161515141515610ea4576040517f08c379a00000000000000000000000000000000000000000000000000000000081526004018080602001828103825260358152602001807f4f6e6c792061646d696e73747261746f72732061726520616c6c6f776564207481526020017f6f2063616c6c20746869732066756e6374696f6e2e000000000000000000000081525060400191505060405180910390fd5b6000809054906101000a900473ffffffffffffffffffffffffffffffffffffffff1673ffffffffffffffffffffffffffffffffffffffff168173ffffffffffffffffffffffffffffffffffffffff1614151515610f8f576040517f08c379a000000000000000000000000000000000000000000000000000000000815260040180806020018281038252602a8152602001807f436f6e7472616374206f776e65722063616e6e6f742062652072656d6f76656481526020017f2061732061646d696e2e0000000000000000000000000000000000000000000081525060400191505060405180910390fd5b6000600360008373ffffffffffffffffffffffffffffffffffffffff1673ffffffffffffffffffffffffffffffffffffffff16815260200190815260200160002060006101000a81548160ff021916908315150217905550600260008154809291906001900391905055508073ffffffffffffffffffffffffffffffffffffffff167ffd6adb633c1ac063aa19914bb6588330135eff0659b9f22b920a8cdb55b311cf60405160405180910390a250565b6000600360008373ffffffffffffffffffffffffffffffffffffffff1673ffffffffffffffffffffffffffffffffffffffff16815260200190815260200160002060009054906101000a900460ff161561109d57600190506110a2565b600090505b919050565b806000600160009054906101000a900473ffffffffffffffffffffffffffffffffffffffff1673ffffffffffffffffffffffffffffffffffffffff16634c77e5ba8360405160200180807f6c697374696e675f627579657200000000000000000000000000000000000000815250600d018281526020019150506040516020818303038152906040526040518082805190602001908083835b6020831015156111655780518252602082019150602081019050602083039250611140565b6001836020036101000a03801982511681845116808217855250505050505090500191505060405180910390206040518263ffffffff167c0100000000000000000000000000000000000000000000000000000000028152600401808260001916600019168152602001915050602060405180830381600087803b1580156111ec57600080fd5b505af1158015611200573d6000803e3d6000fd5b505050506040513d602081101561121657600080fd5b810190808051906020019092919050505073ffffffffffffffffffffffffffffffffffffffff161415156112b2576040517f08c379a000000000000000000000000000000000000000000000000000000000815260040180806020018281038252601d8152602001807f54686973206c697374696e67206973206e6f7420666f722073616c652e00000081525060200191505060405180910390fd5b81600160009054906101000a900473ffffffffffffffffffffffffffffffffffffffff1673ffffffffffffffffffffffffffffffffffffffff16634c77e5ba8260405160200180807f6c697374696e675f73656c6c6572000000000000000000000000000000000000815250600e018281526020019150506040516020818303038152906040526040518082805190602001908083835b60208310151561136e5780518252602082019150602081019050602083039250611349565b6001836020036101000a03801982511681845116808217855250505050505090500191505060405180910390206040518263ffffffff167c0100000000000000000000000000000000000000000000000000000000028152600401808260001916600019168152602001915050602060405180830381600087803b1580156113f557600080fd5b505af1158015611409573d6000803e3d6000fd5b505050506040513d602081101561141f57600080fd5b810190808051906020019092919050505073ffffffffffffffffffffffffffffffffffffffff163373ffffffffffffffffffffffffffffffffffffffff161415156114f8576040517f08c379a000000000000000000000000000000000000000000000000000000000815260040180806020018281038252602d8152602001807f4f6e6c792073656c6c657220697320616c6c6f77656420746f2063616c6c207481526020017f6869732066756e6374696f6e2e0000000000000000000000000000000000000081525060400191505060405180910390fd5b600160009054906101000a900473ffffffffffffffffffffffffffffffffffffffff1673ffffffffffffffffffffffffffffffffffffffff16635a2bf25a8460405160200180807f6c697374696e675f627579657200000000000000000000000000000000000000815250600d018281526020019150506040516020818303038152906040526040518082805190602001908083835b6020831015156115b3578051825260208201915060208101905060208303925061158e565b6001836020036101000a0380198251168184511680821785525050505050509050019150506040518091039020336040518363ffffffff167c01000000000000000000000000000000000000000000000000000000000281526004018083600019166000191681526020018273ffffffffffffffffffffffffffffffffffffffff1673ffffffffffffffffffffffffffffffffffffffff16815260200192505050600060405180830381600087803b15801561166e57600080fd5b505af1158015611682573d6000803e3d6000fd5b50505050827f29b1e789308817e9a96d155dddf522541333cd58e9bff22be407b11b41d75f5860405160405180910390a2505050565b6000600160149054906101000a900460ff16156116d857600190506116dd565b600090505b90565b6000600160149054906101000a900460ff1615151561178d576040517f08c379a00000000000000000000000000000000000000000000000000000000081526004018080602001828103825260308152602001807f436f6e7472616374206d75737420626520756e6c6f636b656420746f2063616c81526020017f6c20746869732066756e6374696f6e2e0000000000000000000000000000000081525060400191505060405180910390fd5b6000845111801561179f575060218451105b1515611839576040517f08c379a000000000000000000000000000000000000000000000000000000000815260040180806020018281038252603c8152602001807f4c697374696e67207469746c65206d757374206265206265747765656e20312081526020017f616e64203332206368617261637465727320696e206c656e6774682e0000000081525060400191505060405180910390fd5b6000835111801561184c57506101018351105b151561190c576040517f08c379a00000000000000000000000000000000000000000000000000000000081526004018080602001828103825260438152602001807f4c697374696e67206465736372697074696f6e206d757374206265206265747781526020017f65656e203120616e6420323536206368617261637465727320696e206c656e6781526020017f74682e000000000000000000000000000000000000000000000000000000000081525060600191505060405180910390fd5b6000821115156119aa576040517f08c379a00000000000000000000000000000000000000000000000000000000081526004018080602001828103825260258152602001807f4c697374696e67207072696365206d757374206265206772656174657220746881526020017f616e20302e00000000000000000000000000000000000000000000000000000081525060400191505060405180910390fd5b600160009054906101000a900473ffffffffffffffffffffffffffffffffffffffff1673ffffffffffffffffffffffffffffffffffffffff1673__ListingsLibrary_______________________630b57098f90918686863360006040518763ffffffff167c0100000000000000000000000000000000000000000000000000000000028152600401808773ffffffffffffffffffffffffffffffffffffffff1673ffffffffffffffffffffffffffffffffffffffff16815260200180602001806020018681526020018573ffffffffffffffffffffffffffffffffffffffff1673ffffffffffffffffffffffffffffffffffffffff1681526020018473ffffffffffffffffffffffffffffffffffffffff168152602001838103835288818151815260200191508051906020019080838360005b83811015611afa578082015181840152602081019050611adf565b50505050905090810190601f168015611b275780820380516001836020036101000a031916815260200191505b50838103825287818151815260200191508051906020019080838360005b83811015611b60578082015181840152602081019050611b45565b50505050905090810190601f168015611b8d5780820380516001836020036101000a031916815260200191505b509850505050505050505060006040518083038186803b158015611bb057600080fd5b505af4158015611bc4573d6000803e3d6000fd5b50505050600160009054906101000a900473ffffffffffffffffffffffffffffffffffffffff1673ffffffffffffffffffffffffffffffffffffffff1673__ListingsLibrary_______________________63442b92c090916040518263ffffffff167c0100000000000000000000000000000000000000000000000000000000028152600401808273ffffffffffffffffffffffffffffffffffffffff1673ffffffffffffffffffffffffffffffffffffffff16815260200191505060206040518083038186803b158015611c9957600080fd5b505af4158015611cad573d6000803e3d6000fd5b505050506040513d6020811015611cc357600080fd5b81019080805190602001909291905050509050807f7c12936d01b8c97d0c81b8dcbc5c46c88c5951b7815dbd3fdb25f23980da42a560405160405180910390a250505050565b600080600160149054906101000a900460ff16151515611db7576040517f08c379a00000000000000000000000000000000000000000000000000000000081526004018080602001828103825260308152602001807f436f6e7472616374206d75737420626520756e6c6f636b656420746f2063616c81526020017f6c20746869732066756e6374696f6e2e0000000000000000000000000000000081525060400191505060405180910390fd5b826000600160009054906101000a900473ffffffffffffffffffffffffffffffffffffffff1673ffffffffffffffffffffffffffffffffffffffff16634c77e5ba8360405160200180807f6c697374696e675f627579657200000000000000000000000000000000000000815250600d018281526020019150506040516020818303038152906040526040518082805190602001908083835b602083101515611e755780518252602082019150602081019050602083039250611e50565b6001836020036101000a03801982511681845116808217855250505050505090500191505060405180910390206040518263ffffffff167c0100000000000000000000000000000000000000000000000000000000028152600401808260001916600019168152602001915050602060405180830381600087803b158015611efc57600080fd5b505af1158015611f10573d6000803e3d6000fd5b505050506040513d6020811015611f2657600080fd5b810190808051906020019092919050505073ffffffffffffffffffffffffffffffffffffffff16141515611fc2576040517f08c379a000000000000000000000000000000000000000000000000000000000815260040180806020018281038252601d8152602001807f54686973206c697374696e67206973206e6f7420666f722073616c652e00000081525060200191505060405180910390fd5b83600160009054906101000a900473ffffffffffffffffffffffffffffffffffffffff1673ffffffffffffffffffffffffffffffffffffffff16634c77e5ba8260405160200180807f6c697374696e675f73656c6c6572000000000000000000000000000000000000815250600e018281526020019150506040516020818303038152906040526040518082805190602001908083835b60208310151561207e5780518252602082019150602081019050602083039250612059565b6001836020036101000a03801982511681845116808217855250505050505090500191505060405180910390206040518263ffffffff167c0100000000000000000000000000000000000000000000000000000000028152600401808260001916600019168152602001915050602060405180830381600087803b15801561210557600080fd5b505af1158015612119573d6000803e3d6000fd5b505050506040513d602081101561212f57600080fd5b810190808051906020019092919050505073ffffffffffffffffffffffffffffffffffffffff163373ffffffffffffffffffffffffffffffffffffffff1614151515612209576040517f08c379a000000000000000000000000000000000000000000000000000000000815260040180806020018281038252602c8152602001807f53656c6c6572206973206e6f7420616c6c6f77656420746f2063616c6c20746881526020017f69732066756e6374696f6e2e000000000000000000000000000000000000000081525060400191505060405180910390fd5b600160009054906101000a900473ffffffffffffffffffffffffffffffffffffffff1673ffffffffffffffffffffffffffffffffffffffff1663bdc963d88660405160200180807f6c697374696e675f707269636500000000000000000000000000000000000000815250600d018281526020019150506040516020818303038152906040526040518082805190602001908083835b6020831015156122c4578051825260208201915060208101905060208303925061229f565b6001836020036101000a03801982511681845116808217855250505050505090500191505060405180910390206040518263ffffffff167c0100000000000000000000000000000000000000000000000000000000028152600401808260001916600019168152602001915050602060405180830381600087803b15801561234b57600080fd5b505af115801561235f573d6000803e3d6000fd5b505050506040513d602081101561237557600080fd5b81019080805190602001909291905050509350600160009054906101000a900473ffffffffffffffffffffffffffffffffffffffff1673ffffffffffffffffffffffffffffffffffffffff16634c77e5ba8660405160200180807f6c697374696e675f73656c6c6572000000000000000000000000000000000000815250600e018281526020019150506040516020818303038152906040526040518082805190602001908083835b602083101515612443578051825260208201915060208101905060208303925061241e565b6001836020036101000a03801982511681845116808217855250505050505090500191505060405180910390206040518263ffffffff167c0100000000000000000000000000000000000000000000000000000000028152600401808260001916600019168152602001915050602060405180830381600087803b1580156124ca57600080fd5b505af11580156124de573d6000803e3d6000fd5b505050506040513d60208110156124f457600080fd5b81019080805190602001909291905050509250600160009054906101000a900473ffffffffffffffffffffffffffffffffffffffff1673ffffffffffffffffffffffffffffffffffffffff16635a2bf25a8660405160200180807f6c697374696e675f627579657200000000000000000000000000000000000000815250600d018281526020019150506040516020818303038152906040526040518082805190602001908083835b6020831015156125c2578051825260208201915060208101905060208303925061259d565b6001836020036101000a0380198251168184511680821785525050505050509050019150506040518091039020336040518363ffffffff167c01000000000000000000000000000000000000000000000000000000000281526004018083600019166000191681526020018273ffffffffffffffffffffffffffffffffffffffff1673ffffffffffffffffffffffffffffffffffffffff16815260200192505050600060405180830381600087803b15801561267d57600080fd5b505af1158015612691573d6000803e3d6000fd5b505050508273ffffffffffffffffffffffffffffffffffffffff166108fc859081150290604051600060405180830381858888f193505050501580156126db573d6000803e3d6000fd5b50847f7cdb9f3ab345514f89d3aedb0c08375586c3e082ee9ececc59eb144045ae5e3960405160405180910390a25050505050565b60011515600360003373ffffffffffffffffffffffffffffffffffffffff1673ffffffffffffffffffffffffffffffffffffffff16815260200190815260200160002060009054906101000a900460ff1615151415156127fe576040517f08c379a00000000000000000000000000000000000000000000000000000000081526004018080602001828103825260358152602001807f4f6e6c792061646d696e73747261746f72732061726520616c6c6f776564207481526020017f6f2063616c6c20746869732066756e6374696f6e2e000000000000000000000081525060400191505060405180910390fd5b600073ffffffffffffffffffffffffffffffffffffffff168173ffffffffffffffffffffffffffffffffffffffff16141515156128c9576040517f08c379a00000000000000000000000000000000000000000000000000000000081526004018080602001828103825260268152602001807f412076616c696420757365722061646472657373206d7573742062652070726f81526020017f76696465642e000000000000000000000000000000000000000000000000000081525060400191505060405180910390fd5b6001600360008373ffffffffffffffffffffffffffffffffffffffff1673ffffffffffffffffffffffffffffffffffffffff16815260200190815260200160002060006101000a81548160ff0219169083151502179055506002600081548092919060010191905055508073ffffffffffffffffffffffffffffffffffffffff167f47b0d897028fef1a950c0154d0fd106fcd327d15d095496a249907eacb3a6f9b60405160405180910390a250565b6000809054906101000a900473ffffffffffffffffffffffffffffffffffffffff1681565b600160009054906101000a900473ffffffffffffffffffffffffffffffffffffffff1681565b60011515600360003373ffffffffffffffffffffffffffffffffffffffff1673ffffffffffffffffffffffffffffffffffffffff16815260200190815260200160002060009054906101000a900460ff161515141515612ab2576040517f08c379a00000000000000000000000000000000000000000000000000000000081526004018080602001828103825260358152602001807f4f6e6c792061646d696e73747261746f72732061726520616c6c6f776564207481526020017f6f2063616c6c20746869732066756e6374696f6e2e000000000000000000000081525060400191505060405180910390fd5b600160149054906101000a900460ff161515612b5c576040517f08c379a000000000000000000000000000000000000000000000000000000000815260040180806020018281038252602e8152602001807f436f6e7472616374206d757374206265206c6f636b656420746f2063616c6c2081526020017f746869732066756e6374696f6e2e00000000000000000000000000000000000081525060400191505060405180910390fd5b6000600160146101000a81548160ff021916908315150217905550565b6000809054906101000a900473ffffffffffffffffffffffffffffffffffffffff1673ffffffffffffffffffffffffffffffffffffffff163373ffffffffffffffffffffffffffffffffffffffff16141515612bd457600080fd5b600073ffffffffffffffffffffffffffffffffffffffff168173ffffffffffffffffffffffffffffffffffffffff1614151515612c1057600080fd5b8073ffffffffffffffffffffffffffffffffffffffff166000809054906101000a900473ffffffffffffffffffffffffffffffffffffffff1673ffffffffffffffffffffffffffffffffffffffff167f8be0079c531659141344cd1fd0a4f28419497f9722a3daafe3b4186f6b6457e060405160405180910390a3806000806101000a81548173ffffffffffffffffffffffffffffffffffffffff021916908373ffffffffffffffffffffffffffffffffffffffff16021790555050565b60011515600360003373ffffffffffffffffffffffffffffffffffffffff1673ffffffffffffffffffffffffffffffffffffffff16815260200190815260200160002060009054906101000a900460ff161515141515612dbc576040517f08c379a00000000000000000000000000000000000000000000000000000000081526004018080602001828103825260358152602001807f4f6e6c792061646d696e73747261746f72732061726520616c6c6f776564207481526020017f6f2063616c6c20746869732066756e6374696f6e2e000000000000000000000081525060400191505060405180910390fd5b600160149054906101000a900460ff16151515612e67576040517f08c379a00000000000000000000000000000000000000000000000000000000081526004018080602001828103825260308152602001807f436f6e7472616374206d75737420626520756e6c6f636b656420746f2063616c81526020017f6c20746869732066756e6374696f6e2e0000000000000000000000000000000081525060400191505060405180910390fd5b60018060146101000a81548160ff0219169083151502179055505600a165627a7a72305820a08b7c2972d4a76017855c1197b639d5444ac5cf05d3c1ccb13208e99cc1783d00296080604052336000806101000a81548173ffffffffffffffffffffffffffffffffffffffff021916908373ffffffffffffffffffffffffffffffffffffffff16021790555034801561005057600080fd5b5061158a806100606000396000f300608060405260043610610133576000357c0100000000000000000000000000000000000000000000000000000000900463ffffffff168063025ec81a14610138578063043106c0146101855780630c55d925146101b6578063124f2418146101e757806317e7dd221461021857806325cf512d146102615780633562fd20146102a05780633cc1635c146102db5780633eba9ed21461030c57806344bfa56e146103495780634c77e5ba146103f35780635a2bf25a146104645780638267a9ee146104b55780638da5cb5b146104e65780639007127b1461053d57806393fe424814610582578063a209a29c146105b3578063a77aa49e1461065d578063ba69fcaa14610698578063bdc963d8146106c9578063c9a52d2c1461070e578063f2fde38b14610785578063f5866066146107c8575b600080fd5b34801561014457600080fd5b50610167600480360381019080803560001916906020019092919050505061083f565b60405180826000191660001916815260200191505060405180910390f35b34801561019157600080fd5b506101b46004803603810190808035600019169060200190929190505050610864565b005b3480156101c257600080fd5b506101e56004803603810190808035600019169060200190929190505050610900565b005b3480156101f357600080fd5b506102166004803603810190808035600019169060200190929190505050610985565b005b34801561022457600080fd5b506102476004803603810190808035600019169060200190929190505050610a02565b604051808215151515815260200191505060405180910390f35b34801561026d57600080fd5b5061029e60048036038101908080356000191690602001909291908035600019169060200190929190505050610a34565b005b3480156102ac57600080fd5b506102d9600480360381019080803560001916906020019092919080359060200190929190505050610ab7565b005b3480156102e757600080fd5b5061030a6004803603810190808035600019169060200190929190505050610b36565b005b34801561031857600080fd5b506103476004803603810190808035600019169060200190929190803515159060200190929190505050610bbf565b005b34801561035557600080fd5b506103786004803603810190808035600019169060200190929190505050610c51565b6040518080602001828103825283818151815260200191508051906020019080838360005b838110156103b857808201518184015260208101905061039d565b50505050905090810190601f1680156103e55780820380516001836020036101000a031916815260200191505b509250505060405180910390f35b3480156103ff57600080fd5b506104226004803603810190808035600019169060200190929190505050610d0e565b604051808273ffffffffffffffffffffffffffffffffffffffff1673ffffffffffffffffffffffffffffffffffffffff16815260200191505060405180910390f35b34801561047057600080fd5b506104b36004803603810190808035600019169060200190929190803573ffffffffffffffffffffffffffffffffffffffff169060200190929190505050610d53565b005b3480156104c157600080fd5b506104e46004803603810190808035600019169060200190929190505050610e0c565b005b3480156104f257600080fd5b506104fb610e89565b604051808273ffffffffffffffffffffffffffffffffffffffff1673ffffffffffffffffffffffffffffffffffffffff16815260200191505060405180910390f35b34801561054957600080fd5b5061056c6004803603810190808035600019169060200190929190505050610eae565b6040518082815260200191505060405180910390f35b34801561058e57600080fd5b506105b16004803603810190808035600019169060200190929190505050610ed3565b005b3480156105bf57600080fd5b506105e26004803603810190808035600019169060200190929190505050610f50565b6040518080602001828103825283818151815260200191508051906020019080838360005b83811015610622578082015181840152602081019050610607565b50505050905090810190601f16801561064f5780820380516001836020036101000a031916815260200191505b509250505060405180910390f35b34801561066957600080fd5b5061069660048036038101908080356000191690602001909291908035906020019092919050505061100d565b005b3480156106a457600080fd5b506106c7600480360381019080803560001916906020019092919050505061108c565b005b3480156106d557600080fd5b506106f86004803603810190808035600019169060200190929190505050611111565b6040518082815260200191505060405180910390f35b34801561071a57600080fd5b506107836004803603810190808035600019169060200190929190803590602001908201803590602001908080601f0160208091040260200160405190810160405280939291908181526020018383808284378201915050505050509192919290505050611136565b005b34801561079157600080fd5b506107c6600480360381019080803573ffffffffffffffffffffffffffffffffffffffff1690602001909291905050506111c5565b005b3480156107d457600080fd5b5061083d6004803603810190808035600019169060200190929190803590602001908201803590602001908080601f016020809104026020016040519081016040528093929190818152602001838380828437820191505050505050919291929050505061131a565b005b6000600560008360001916600019168152602001908152602001600020549050919050565b6000809054906101000a900473ffffffffffffffffffffffffffffffffffffffff1673ffffffffffffffffffffffffffffffffffffffff163373ffffffffffffffffffffffffffffffffffffffff161415156108bf57600080fd5b60036000826000191660001916815260200190815260200160002060006101000a81549073ffffffffffffffffffffffffffffffffffffffff021916905550565b6000809054906101000a900473ffffffffffffffffffffffffffffffffffffffff1673ffffffffffffffffffffffffffffffffffffffff163373ffffffffffffffffffffffffffffffffffffffff1614151561095b57600080fd5b600460008260001916600019168152602001908152602001600020600061098291906113a9565b50565b6000809054906101000a900473ffffffffffffffffffffffffffffffffffffffff1673ffffffffffffffffffffffffffffffffffffffff163373ffffffffffffffffffffffffffffffffffffffff161415156109e057600080fd5b6005600082600019166000191681526020019081526020016000206000905550565b600060066000836000191660001916815260200190815260200160002060009054906101000a900460ff169050919050565b6000809054906101000a900473ffffffffffffffffffffffffffffffffffffffff1673ffffffffffffffffffffffffffffffffffffffff163373ffffffffffffffffffffffffffffffffffffffff16141515610a8f57600080fd5b8060056000846000191660001916815260200190815260200160002081600019169055505050565b6000809054906101000a900473ffffffffffffffffffffffffffffffffffffffff1673ffffffffffffffffffffffffffffffffffffffff163373ffffffffffffffffffffffffffffffffffffffff16141515610b1257600080fd5b80600160008460001916600019168152602001908152602001600020819055505050565b6000809054906101000a900473ffffffffffffffffffffffffffffffffffffffff1673ffffffffffffffffffffffffffffffffffffffff163373ffffffffffffffffffffffffffffffffffffffff16141515610b9157600080fd5b60066000826000191660001916815260200190815260200160002060006101000a81549060ff021916905550565b6000809054906101000a900473ffffffffffffffffffffffffffffffffffffffff1673ffffffffffffffffffffffffffffffffffffffff163373ffffffffffffffffffffffffffffffffffffffff16141515610c1a57600080fd5b8060066000846000191660001916815260200190815260200160002060006101000a81548160ff0219169083151502179055505050565b60606004600083600019166000191681526020019081526020016000208054600181600116156101000203166002900480601f016020809104026020016040519081016040528092919081815260200182805460018160011615610100020316600290048015610d025780601f10610cd757610100808354040283529160200191610d02565b820191906000526020600020905b815481529060010190602001808311610ce557829003601f168201915b50505050509050919050565b600060036000836000191660001916815260200190815260200160002060009054906101000a900473ffffffffffffffffffffffffffffffffffffffff169050919050565b6000809054906101000a900473ffffffffffffffffffffffffffffffffffffffff1673ffffffffffffffffffffffffffffffffffffffff163373ffffffffffffffffffffffffffffffffffffffff16141515610dae57600080fd5b8060036000846000191660001916815260200190815260200160002060006101000a81548173ffffffffffffffffffffffffffffffffffffffff021916908373ffffffffffffffffffffffffffffffffffffffff1602179055505050565b6000809054906101000a900473ffffffffffffffffffffffffffffffffffffffff1673ffffffffffffffffffffffffffffffffffffffff163373ffffffffffffffffffffffffffffffffffffffff16141515610e6757600080fd5b6007600082600019166000191681526020019081526020016000206000905550565b6000809054906101000a900473ffffffffffffffffffffffffffffffffffffffff1681565b6000600760008360001916600019168152602001908152602001600020549050919050565b6000809054906101000a900473ffffffffffffffffffffffffffffffffffffffff1673ffffffffffffffffffffffffffffffffffffffff163373ffffffffffffffffffffffffffffffffffffffff16141515610f2e57600080fd5b6001600082600019166000191681526020019081526020016000206000905550565b60606002600083600019166000191681526020019081526020016000208054600181600116156101000203166002900480601f0160208091040260200160405190810160405280929190818152602001828054600181600116156101000203166002900480156110015780601f10610fd657610100808354040283529160200191611001565b820191906000526020600020905b815481529060010190602001808311610fe457829003601f168201915b50505050509050919050565b6000809054906101000a900473ffffffffffffffffffffffffffffffffffffffff1673ffffffffffffffffffffffffffffffffffffffff163373ffffffffffffffffffffffffffffffffffffffff1614151561106857600080fd5b80600760008460001916600019168152602001908152602001600020819055505050565b6000809054906101000a900473ffffffffffffffffffffffffffffffffffffffff1673ffffffffffffffffffffffffffffffffffffffff163373ffffffffffffffffffffffffffffffffffffffff161415156110e757600080fd5b600260008260001916600019168152602001908152602001600020600061110e91906113f1565b50565b6000600160008360001916600019168152602001908152602001600020549050919050565b6000809054906101000a900473ffffffffffffffffffffffffffffffffffffffff1673ffffffffffffffffffffffffffffffffffffffff163373ffffffffffffffffffffffffffffffffffffffff1614151561119157600080fd5b8060046000846000191660001916815260200190815260200160002090805190602001906111c0929190611439565b505050565b6000809054906101000a900473ffffffffffffffffffffffffffffffffffffffff1673ffffffffffffffffffffffffffffffffffffffff163373ffffffffffffffffffffffffffffffffffffffff1614151561122057600080fd5b600073ffffffffffffffffffffffffffffffffffffffff168173ffffffffffffffffffffffffffffffffffffffff161415151561125c57600080fd5b8073ffffffffffffffffffffffffffffffffffffffff166000809054906101000a900473ffffffffffffffffffffffffffffffffffffffff1673ffffffffffffffffffffffffffffffffffffffff167f8be0079c531659141344cd1fd0a4f28419497f9722a3daafe3b4186f6b6457e060405160405180910390a3806000806101000a81548173ffffffffffffffffffffffffffffffffffffffff021916908373ffffffffffffffffffffffffffffffffffffffff16021790555050565b6000809054906101000a900473ffffffffffffffffffffffffffffffffffffffff1673ffffffffffffffffffffffffffffffffffffffff163373ffffffffffffffffffffffffffffffffffffffff1614151561137557600080fd5b8060026000846000191660001916815260200190815260200160002090805190602001906113a49291906114b9565b505050565b50805460018160011615610100020316600290046000825580601f106113cf57506113ee565b601f0160209004906000526020600020908101906113ed9190611539565b5b50565b50805460018160011615610100020316600290046000825580601f106114175750611436565b601f0160209004906000526020600020908101906114359190611539565b5b50565b828054600181600116156101000203166002900490600052602060002090601f016020900481019282601f1061147a57805160ff19168380011785556114a8565b828001600101855582156114a8579182015b828111156114a757825182559160200191906001019061148c565b5b5090506114b59190611539565b5090565b828054600181600116156101000203166002900490600052602060002090601f016020900481019282601f106114fa57805160ff1916838001178555611528565b82800160010185558215611528579182015b8281111561152757825182559160200191906001019061150c565b5b5090506115359190611539565b5090565b61155b91905b8082111561155757600081600090555060010161153f565b5090565b905600a165627a7a723058201ce4fdb047b567c4b6f6099d3aa86638529d385b7b831fdbc7dd5868c0efab700029",
  "source": "pragma solidity ^0.4.24;\r\n\r\n//import \"./Ownable.sol\";\r\nimport \"./ListingsLibrary.sol\";\r\nimport \"./EternalStorage.sol\";\r\n\r\n/** @title MarketPlace */\r\ncontract MarketPlace is Ownable {\r\n\r\n  using ListingsLibrary for EternalStorage;\r\n  EternalStorage public eternalStorage;\r\n\r\n  bool locked;\r\n  uint adminCount;\r\n  mapping(address => bool) admins;\r\n\r\n  /**\r\n   * Set locked to \"false\", thus activating the contract.  Create new instance of \r\n   * EternalStorage contract, thus setting owner of EternalStorage contract to address \r\n   * of this contract.  This makes it so only this contract and the libraries it uses \r\n   * can write to state of EternalStorage contract as all writeable methods of \r\n   * EternalStorage contract are decorated with \"onlyOwner\" modifier.\r\n   *\r\n   * Also add msg.sender (the contract owner) as an administrator, granting them \r\n   * administrator privileges. \r\n   */\r\n  constructor() public {\r\n    locked = false;\r\n    eternalStorage = new EternalStorage();\r\n    admins[msg.sender] = true;\r\n    adminCount = 1;\r\n  }\r\n\r\n  /*\r\n   * Declare \"Listing\" events to allow application access to all listings and to trigger\r\n   * application user interface updates.\r\n   */\r\n  event createListingEvent(\r\n    uint indexed listingId\r\n  );\r\n  event buyListingEvent(\r\n    uint indexed listingId\r\n  );\r\n  event cancelListingEvent(\r\n    uint indexed listingId\r\n  );\r\n\r\n  /*\r\n   * Declare \"Admin\" events to allow application to display list of administrators.\r\n   */\r\n  event addAdminEvent(\r\n    address indexed user\r\n  );\r\n  event removeAdminEvent(\r\n    address indexed user\r\n  );\r\n\r\n  modifier isLocked() {\r\n    require (\r\n      locked,\r\n      \"Contract must be locked to call this function.\"\r\n    );\r\n    _;\r\n  }\r\n  modifier isNotLocked() {\r\n    require (\r\n      !locked,\r\n      \"Contract must be unlocked to call this function.\"\r\n    );\r\n    _;\r\n  }\r\n  modifier isSeller(uint _id) {\r\n    require (\r\n      msg.sender == eternalStorage.getAddressValue(keccak256(abi.encodePacked(\"listing_seller\", _id))),\r\n      \"Only seller is allowed to call this function.\"\r\n    );\r\n    _;\r\n  }\r\n  modifier isNotSeller(uint _id) {\r\n    require (\r\n      msg.sender != eternalStorage.getAddressValue(keccak256(abi.encodePacked(\"listing_seller\", _id))),\r\n      \"Seller is not allowed to call this function.\"\r\n    );\r\n    _;\r\n  }\r\n  modifier isForSale (uint _id) {\r\n    require (\r\n      eternalStorage.getAddressValue(keccak256(abi.encodePacked(\"listing_buyer\", _id))) == 0x0,\r\n      \"This listing is not for sale.\"\r\n    );\r\n    _;\r\n  }\r\n\r\n  modifier onlyAdmin {\r\n    require(\r\n      admins[msg.sender] == true,\r\n      \"Only adminstrators are allowed to call this function.\"\r\n    );\r\n    _;\r\n  }\r\n\r\n  /** @dev Locks contract so that no listing transactions can be performed.\r\n    */\r\n  function lock() public onlyAdmin isNotLocked() {\r\n    locked = true;\r\n  }\r\n\r\n  /** @dev Unlocks contract so that listing transactions can be performed.\r\n    */\r\n  function unlock() public onlyAdmin isLocked() {\r\n    locked = false;\r\n  }\r\n\r\n  /** @dev Checks if contract is locked.\r\n    * @return \"true\" or \"false\"\r\n    */\r\n  function isFrozen()\r\n    public view\r\n    returns(bool)\r\n  {\r\n    if (locked) {\r\n      return true;\r\n    } else {\r\n      return false;\r\n    }\r\n  }\r\n\r\n  /** @dev Creates a new listing.\r\n    * @param _title - Title of the listing. Must be less than 32 characters in length.\r\n    * @param _description - Description of the listing. Must be less than 256 characters in length.\r\n    * @param _price - Price of the listing. Must be greater than 0.\r\n    */\r\n  function createListing(string _title, string _description, uint _price) \r\n    public \r\n    isNotLocked() \r\n  {\r\n    require(\r\n      bytes(_title).length > 0 && bytes(_title).length < 33,\r\n      \"Listing title must be between 1 and 32 characters in length.\"\r\n    );\r\n    require(\r\n      bytes(_description).length > 0 && bytes(_description).length < 257,\r\n      \"Listing description must be between 1 and 256 characters in length.\"\r\n    );\r\n    require(\r\n      _price > 0,\r\n      \"Listing price must be greater than 0.\"\r\n    );\r\n    eternalStorage.createListing(_title, _description, _price, msg.sender, 0x0);\r\n    uint _id = eternalStorage.getListingCount();\r\n    emit createListingEvent(_id);\r\n  }\r\n\r\n  /** @dev Marks a listing as sold by setting listing buyer to address of msg.sender and \r\n    * transfers an amount of ETH equal to the listing price from msg.sender to the listing\r\n    * seller.\r\n    * @param _id - Id of the listing.\r\n    */\r\n  function buyListing(uint _id) \r\n    public payable\r\n    isNotLocked() \r\n    isForSale(_id) \r\n    isNotSeller(_id)\r\n  {\r\n    uint _price = eternalStorage.getUIntValue(keccak256(abi.encodePacked(\"listing_price\", _id)));\r\n    address _seller = eternalStorage.getAddressValue(keccak256(abi.encodePacked(\"listing_seller\", _id)));\r\n    eternalStorage.setAddressValue(keccak256(abi.encodePacked(\"listing_buyer\", _id)), msg.sender);\r\n    _seller.transfer(_price);\r\n    emit buyListingEvent(_id);\r\n  }\r\n\r\n  /** @dev Marks a listing as cancelled by setting listing buyer to address of listing seller.\r\n    * @param _id - Id of the listing.\r\n    */\r\n  function cancelListing(uint _id) \r\n    public\r\n    isForSale(_id) \r\n    isSeller(_id)\r\n  {\r\n    eternalStorage.setAddressValue(keccak256(abi.encodePacked(\"listing_buyer\", _id)), msg.sender);\r\n    emit cancelListingEvent(_id);\r\n  }\r\n\r\n  /** @dev Gets all attributes for a listing.\r\n    * @param _id - Id of the listing.\r\n    */\r\n  function getListing(uint _id) \r\n    public view\r\n    returns(string _title, string _description, uint _price, address _seller, address _buyer)\r\n  {\r\n    return(\r\n      eternalStorage.getStringValue(keccak256(abi.encodePacked(\"listing_title\", _id))),\r\n      eternalStorage.getStringValue(keccak256(abi.encodePacked(\"listing_description\", _id))),\r\n      eternalStorage.getUIntValue(keccak256(abi.encodePacked(\"listing_price\", _id))),\r\n      eternalStorage.getAddressValue(keccak256(abi.encodePacked(\"listing_seller\", _id))),\r\n      eternalStorage.getAddressValue(keccak256(abi.encodePacked(\"listing_buyer\", _id)))\r\n    );\r\n  }\r\n\r\n  /** @dev Adds new administrator.\r\n    * @param _user - Address of user to add.\r\n    */\r\n  function addAdmin(address _user)\r\n    public\r\n    onlyAdmin\r\n  {\r\n    require(\r\n      _user != address(0),\r\n      \"A valid user address must be provided.\"\r\n    );\r\n    admins[_user] = true;\r\n    adminCount++;\r\n    emit addAdminEvent(_user);\r\n  }\r\n\r\n  /** @dev Removes an existing administrator.\r\n    * @param _user - Address of user to remove.\r\n    */\r\n  function removeAdmin(address _user)\r\n    public\r\n    onlyAdmin\r\n  {\r\n    require(_user != owner, \"Contract owner cannot be removed as admin.\");\r\n    admins[_user] = false;\r\n    adminCount--;\r\n    emit removeAdminEvent(_user);\r\n  }\r\n\r\n  /** @dev Checks whether a user address is an administrator.\r\n    * @param _user - Address of user to check.\r\n    * @return \"true\" or \"false\"\r\n    */\r\n  function isAdmin(address _user)\r\n    public view\r\n    returns(bool)\r\n  {\r\n    if (admins[_user]) {\r\n      return true;\r\n    } else {\r\n      return false;\r\n    }\r\n  }\r\n}",
  "sourcePath": "C:\\Users\\DLauterbach\\truffle-projects\\marketplace\\contracts\\MarketPlace.sol",
  "compiler": {
    "name": "solc",
    "version": "0.4.24+commit.e67f0147.Emscripten.clang"
  },
  "schemaVersion": "2.0.1",
  "updatedAt": "2018-08-23T20:57:23.965Z"
}