{
  "contractName": "SecurityLibrary",
  "abi": [
    {
      "anonymous": false,
      "inputs": [
        {
          "indexed": true,
          "name": "user",
          "type": "address"
        }
      ],
      "name": "addAdminEvent",
      "type": "event"
    },
    {
      "anonymous": false,
      "inputs": [
        {
          "indexed": true,
          "name": "user",
          "type": "address"
        }
      ],
      "name": "removeAdminEvent",
      "type": "event"
    },
    {
      "constant": true,
      "inputs": [
        {
          "name": "_storageContract",
          "type": "address"
        }
      ],
      "name": "getAdminsCount",
      "outputs": [
        {
          "name": "",
          "type": "uint256"
        }
      ],
      "payable": false,
      "stateMutability": "view",
      "type": "function"
    },
    {
      "constant": false,
      "inputs": [
        {
          "name": "_storageContract",
          "type": "address"
        },
        {
          "name": "_user",
          "type": "address"
        }
      ],
      "name": "addAdmin",
      "outputs": [],
      "payable": false,
      "stateMutability": "nonpayable",
      "type": "function"
    },
    {
      "constant": false,
      "inputs": [
        {
          "name": "_storageContract",
          "type": "address"
        },
        {
          "name": "_user",
          "type": "address"
        }
      ],
      "name": "removeAdmin",
      "outputs": [],
      "payable": false,
      "stateMutability": "nonpayable",
      "type": "function"
    },
    {
      "constant": true,
      "inputs": [
        {
          "name": "_storageContract",
          "type": "address"
        },
        {
          "name": "_user",
          "type": "address"
        }
      ],
      "name": "isAdmin",
      "outputs": [
        {
          "name": "",
          "type": "bool"
        }
      ],
      "payable": false,
      "stateMutability": "view",
      "type": "function"
    }
  ],
  "bytecode": "0x610dc7610030600b82828239805160001a6073146000811461002057610022565bfe5b5030600052607381538281f3007300000000000000000000000000000000000000003014608060405260043610610079576000357c0100000000000000000000000000000000000000000000000000000000900463ffffffff1680631945bb721461007e578063268959e5146100c85780638a19b4d21461012b578063910067451461018e575b600080fd5b6100b2600480360381019080803573ffffffffffffffffffffffffffffffffffffffff1690602001909291905050506101fc565b6040518082815260200191505060405180910390f35b8180156100d457600080fd5b50610129600480360381019080803573ffffffffffffffffffffffffffffffffffffffff169060200190929190803573ffffffffffffffffffffffffffffffffffffffff1690602001909291905050506102ec565b005b81801561013757600080fd5b5061018c600480360381019080803573ffffffffffffffffffffffffffffffffffffffff169060200190929190803573ffffffffffffffffffffffffffffffffffffffff169060200190929190505050610879565b005b6101e2600480360381019080803573ffffffffffffffffffffffffffffffffffffffff169060200190929190803573ffffffffffffffffffffffffffffffffffffffff169060200190929190505050610bfb565b604051808215151515815260200191505060405180910390f35b60008173ffffffffffffffffffffffffffffffffffffffff1663bdc963d860405180807f41646d696e73436f756e74000000000000000000000000000000000000000000815250600b01905060405180910390206040518263ffffffff167c0100000000000000000000000000000000000000000000000000000000028152600401808260001916600019168152602001915050602060405180830381600087803b1580156102aa57600080fd5b505af11580156102be573d6000803e3d6000fd5b505050506040513d60208110156102d457600080fd5b81019080805190602001909291905050509050919050565b60008273ffffffffffffffffffffffffffffffffffffffff166317e7dd228360405160200180807f61646d696e3a00000000000000000000000000000000000000000000000000008152506006018273ffffffffffffffffffffffffffffffffffffffff1673ffffffffffffffffffffffffffffffffffffffff166c010000000000000000000000000281526014019150506040516020818303038152906040526040518082805190602001908083835b6020831015156103c2578051825260208201915060208101905060208303925061039d565b6001836020036101000a03801982511681845116808217855250505050505090500191505060405180910390206040518263ffffffff167c0100000000000000000000000000000000000000000000000000000000028152600401808260001916600019168152602001915050602060405180830381600087803b15801561044957600080fd5b505af115801561045d573d6000803e3d6000fd5b505050506040513d602081101561047357600080fd5b81019080805190602001909291905050501515156104f9576040517f08c379a00000000000000000000000000000000000000000000000000000000081526004018080602001828103825260198152602001807f5573657220697320616c726561647920616e2061646d696e2e0000000000000081525060200191505060405180910390fd5b8273ffffffffffffffffffffffffffffffffffffffff16633eba9ed28360405160200180807f61646d696e3a00000000000000000000000000000000000000000000000000008152506006018273ffffffffffffffffffffffffffffffffffffffff1673ffffffffffffffffffffffffffffffffffffffff166c010000000000000000000000000281526014019150506040516020818303038152906040526040518082805190602001908083835b6020831015156105cd57805182526020820191506020810190506020830392506105a8565b6001836020036101000a038019825116818451168082178552505050505050905001915050604051809103902060016040518363ffffffff167c01000000000000000000000000000000000000000000000000000000000281526004018083600019166000191681526020018215151515815260200192505050600060405180830381600087803b15801561066157600080fd5b505af1158015610675573d6000803e3d6000fd5b505050508273ffffffffffffffffffffffffffffffffffffffff1663bdc963d860405180807f41646d696e73436f756e74000000000000000000000000000000000000000000815250600b01905060405180910390206040518263ffffffff167c0100000000000000000000000000000000000000000000000000000000028152600401808260001916600019168152602001915050602060405180830381600087803b15801561072557600080fd5b505af1158015610739573d6000803e3d6000fd5b505050506040513d602081101561074f57600080fd5b810190808051906020019092919050505090508273ffffffffffffffffffffffffffffffffffffffff16633562fd2060405180807f41646d696e73436f756e74000000000000000000000000000000000000000000815250600b0190506040518091039020600184036040518363ffffffff167c010000000000000000000000000000000000000000000000000000000002815260040180836000191660001916815260200182815260200192505050600060405180830381600087803b15801561081957600080fd5b505af115801561082d573d6000803e3d6000fd5b505050508173ffffffffffffffffffffffffffffffffffffffff167ffd6adb633c1ac063aa19914bb6588330135eff0659b9f22b920a8cdb55b311cf60405160405180910390a2505050565b60008273ffffffffffffffffffffffffffffffffffffffff16633eba9ed28360405160200180807f61646d696e3a00000000000000000000000000000000000000000000000000008152506006018273ffffffffffffffffffffffffffffffffffffffff1673ffffffffffffffffffffffffffffffffffffffff166c010000000000000000000000000281526014019150506040516020818303038152906040526040518082805190602001908083835b60208310151561094f578051825260208201915060208101905060208303925061092a565b6001836020036101000a038019825116818451168082178552505050505050905001915050604051809103902060016040518363ffffffff167c01000000000000000000000000000000000000000000000000000000000281526004018083600019166000191681526020018215151515815260200192505050600060405180830381600087803b1580156109e357600080fd5b505af11580156109f7573d6000803e3d6000fd5b505050508273ffffffffffffffffffffffffffffffffffffffff1663bdc963d860405180807f41646d696e73436f756e74000000000000000000000000000000000000000000815250600b01905060405180910390206040518263ffffffff167c0100000000000000000000000000000000000000000000000000000000028152600401808260001916600019168152602001915050602060405180830381600087803b158015610aa757600080fd5b505af1158015610abb573d6000803e3d6000fd5b505050506040513d6020811015610ad157600080fd5b810190808051906020019092919050505090508273ffffffffffffffffffffffffffffffffffffffff16633562fd2060405180807f41646d696e73436f756e74000000000000000000000000000000000000000000815250600b0190506040518091039020600184016040518363ffffffff167c010000000000000000000000000000000000000000000000000000000002815260040180836000191660001916815260200182815260200192505050600060405180830381600087803b158015610b9b57600080fd5b505af1158015610baf573d6000803e3d6000fd5b505050508173ffffffffffffffffffffffffffffffffffffffff167f47b0d897028fef1a950c0154d0fd106fcd327d15d095496a249907eacb3a6f9b60405160405180910390a2505050565b60008273ffffffffffffffffffffffffffffffffffffffff166317e7dd228360405160200180807f61646d696e3a00000000000000000000000000000000000000000000000000008152506006018273ffffffffffffffffffffffffffffffffffffffff1673ffffffffffffffffffffffffffffffffffffffff166c010000000000000000000000000281526014019150506040516020818303038152906040526040518082805190602001908083835b602083101515610cd15780518252602082019150602081019050602083039250610cac565b6001836020036101000a03801982511681845116808217855250505050505090500191505060405180910390206040518263ffffffff167c0100000000000000000000000000000000000000000000000000000000028152600401808260001916600019168152602001915050602060405180830381600087803b158015610d5857600080fd5b505af1158015610d6c573d6000803e3d6000fd5b505050506040513d6020811015610d8257600080fd5b81019080805190602001909291905050509050929150505600a165627a7a7230582045054a74695d0fb1e26bf511b93f8f12d8a02efa34620fbc4fb65858c69800800029",
  "source": "pragma solidity ^0.4.24;\r\n\r\nimport \"./EternalStorage.sol\";\r\n\r\nlibrary SecurityLibrary {\r\n\r\n  event addAdminEvent(\r\n    address indexed user\r\n  );\r\n  event removeAdminEvent(\r\n    address indexed user\r\n  );\r\n\r\n  function getAdminsCount(address _storageContract) public view returns(uint) \r\n  {\r\n    return EternalStorage(_storageContract).getUIntValue(keccak256(\"AdminsCount\"));\r\n  } \r\n\t\r\n  function addAdmin(address _storageContract, address _user) public\r\n  {\r\n    //require(\r\n    //  !EternalStorage(_storageContract).getBooleanValue(keccak256(abi.encodePacked(\"admin:\", _user))),\r\n    //  \"User is already an admin.\"\r\n    //);\r\n    EternalStorage(_storageContract).setBooleanValue(keccak256(abi.encodePacked(\"admin:\", _user)), true);\r\n\r\n    // Increment the admins count in storage\r\n    uint adminsCount = EternalStorage(_storageContract).getUIntValue(keccak256(\"AdminsCount\"));\r\n    EternalStorage(_storageContract).setUIntValue(keccak256(\"AdminsCount\"), adminsCount + 1);\r\n\r\n    emit addAdminEvent(_user);\r\n  }\r\n\r\n  function removeAdmin(address _storageContract, address _user) public\r\n  {\r\n    require(\r\n      !EternalStorage(_storageContract).getBooleanValue(keccak256(abi.encodePacked(\"admin:\", _user))),\r\n      \"User is already an admin.\"\r\n    );\r\n    EternalStorage(_storageContract).setBooleanValue(keccak256(abi.encodePacked(\"admin:\", _user)), true);\r\n\r\n    // Decrement the admins count in storage\r\n    uint adminsCount = EternalStorage(_storageContract).getUIntValue(keccak256(\"AdminsCount\"));\r\n    EternalStorage(_storageContract).setUIntValue(keccak256(\"AdminsCount\"), adminsCount - 1);\r\n\r\n    emit removeAdminEvent(_user);\r\n  }\r\n\r\n  function isAdmin(address _storageContract, address _user) public view returns(bool)\r\n  {\r\n\r\n    return EternalStorage(_storageContract).getBooleanValue(keccak256(abi.encodePacked(\"admin:\", _user)));\r\n  }\r\n\r\n}",
  "sourcePath": "C:\\Users\\DLauterbach\\truffle-projects\\truffle-cra\\contracts\\SecurityLibrary.sol",
  "compiler": {
    "name": "solc",
    "version": "0.4.24+commit.e67f0147.Emscripten.clang"
  },
  "schemaVersion": "2.0.1",
  "updatedAt": "2018-08-21T19:35:29.633Z"
}